{
	"contracts/Voting.sol": {
		"Voting": {
			"abi": [
				{
					"inputs": [],
					"stateMutability": "nonpayable",
					"type": "constructor"
				},
				{
					"anonymous": false,
					"inputs": [
						{
							"indexed": false,
							"internalType": "string",
							"name": "message",
							"type": "string"
						}
					],
					"name": "VoteResult",
					"type": "event"
				},
				{
					"inputs": [
						{
							"internalType": "bytes32",
							"name": "postName",
							"type": "bytes32"
						}
					],
					"name": "addPost",
					"outputs": [],
					"stateMutability": "nonpayable",
					"type": "function"
				},
				{
					"inputs": [
						{
							"internalType": "bytes32",
							"name": "name",
							"type": "bytes32"
						},
						{
							"internalType": "uint256",
							"name": "postID",
							"type": "uint256"
						}
					],
					"name": "createCandidate",
					"outputs": [],
					"stateMutability": "nonpayable",
					"type": "function"
				},
				{
					"inputs": [
						{
							"internalType": "bytes32",
							"name": "voterID",
							"type": "bytes32"
						},
						{
							"internalType": "bool",
							"name": "doesExist",
							"type": "bool"
						}
					],
					"name": "createVoter",
					"outputs": [],
					"stateMutability": "nonpayable",
					"type": "function"
				},
				{
					"inputs": [
						{
							"internalType": "uint256",
							"name": "candidateID",
							"type": "uint256"
						}
					],
					"name": "dropCandidate",
					"outputs": [],
					"stateMutability": "nonpayable",
					"type": "function"
				},
				{
					"inputs": [
						{
							"internalType": "uint256",
							"name": "candidateID",
							"type": "uint256"
						}
					],
					"name": "enableCandidate",
					"outputs": [],
					"stateMutability": "nonpayable",
					"type": "function"
				},
				{
					"inputs": [
						{
							"internalType": "uint256",
							"name": "candidateID",
							"type": "uint256"
						}
					],
					"name": "getCandidate",
					"outputs": [
						{
							"internalType": "uint256",
							"name": "",
							"type": "uint256"
						},
						{
							"internalType": "bytes32",
							"name": "",
							"type": "bytes32"
						},
						{
							"internalType": "uint256",
							"name": "",
							"type": "uint256"
						},
						{
							"internalType": "uint256",
							"name": "",
							"type": "uint256"
						},
						{
							"internalType": "bytes32",
							"name": "",
							"type": "bytes32"
						}
					],
					"stateMutability": "view",
					"type": "function"
				},
				{
					"inputs": [],
					"name": "getNumOfCandidates",
					"outputs": [
						{
							"internalType": "uint256",
							"name": "",
							"type": "uint256"
						}
					],
					"stateMutability": "view",
					"type": "function"
				},
				{
					"inputs": [],
					"name": "getNumOfPosts",
					"outputs": [
						{
							"internalType": "uint256",
							"name": "",
							"type": "uint256"
						}
					],
					"stateMutability": "view",
					"type": "function"
				},
				{
					"inputs": [],
					"name": "getNumOfVoters",
					"outputs": [
						{
							"internalType": "uint256",
							"name": "",
							"type": "uint256"
						}
					],
					"stateMutability": "view",
					"type": "function"
				},
				{
					"inputs": [
						{
							"internalType": "uint256",
							"name": "postID",
							"type": "uint256"
						}
					],
					"name": "getPost",
					"outputs": [
						{
							"internalType": "uint256",
							"name": "",
							"type": "uint256"
						},
						{
							"internalType": "bytes32",
							"name": "",
							"type": "bytes32"
						}
					],
					"stateMutability": "view",
					"type": "function"
				},
				{
					"inputs": [
						{
							"internalType": "uint256",
							"name": "candidateID",
							"type": "uint256"
						}
					],
					"name": "getTotalVotes",
					"outputs": [
						{
							"internalType": "uint256",
							"name": "",
							"type": "uint256"
						}
					],
					"stateMutability": "view",
					"type": "function"
				},
				{
					"inputs": [
						{
							"internalType": "bytes32",
							"name": "voterID",
							"type": "bytes32"
						},
						{
							"internalType": "uint256",
							"name": "candidateID",
							"type": "uint256"
						}
					],
					"name": "vote",
					"outputs": [],
					"stateMutability": "nonpayable",
					"type": "function"
				}
			],
			"devdoc": {
				"kind": "dev",
				"methods": {},
				"version": 1
			},
			"evm": {
				"assembly": "    /* \"contracts/Voting.sol\":25:3023  contract Voting {... */\n  mstore(0x40, 0x80)\n    /* \"contracts/Voting.sol\":105:153  constructor(){... */\n  callvalue\n  dup1\n  iszero\n  tag_1\n  jumpi\n  0x00\n  dup1\n  revert\ntag_1:\n  pop\n    /* \"contracts/Voting.sol\":136:146  msg.sender */\n  caller\n    /* \"contracts/Voting.sol\":128:133  owner */\n  0x00\n  dup1\n    /* \"contracts/Voting.sol\":128:146  owner = msg.sender */\n  0x0100\n  exp\n  dup2\n  sload\n  dup2\n  0xffffffffffffffffffffffffffffffffffffffff\n  mul\n  not\n  and\n  swap1\n  dup4\n  0xffffffffffffffffffffffffffffffffffffffff\n  and\n  mul\n  or\n  swap1\n  sstore\n  pop\n    /* \"contracts/Voting.sol\":25:3023  contract Voting {... */\n  dataSize(sub_0)\n  dup1\n  dataOffset(sub_0)\n  0x00\n  codecopy\n  0x00\n  return\nstop\n\nsub_0: assembly {\n        /* \"contracts/Voting.sol\":25:3023  contract Voting {... */\n      mstore(0x40, 0x80)\n      callvalue\n      dup1\n      iszero\n      tag_1\n      jumpi\n      0x00\n      dup1\n      revert\n    tag_1:\n      pop\n      jumpi(tag_2, lt(calldatasize, 0x04))\n      shr(0xe0, calldataload(0x00))\n      dup1\n      0x9ef1204c\n      gt\n      tag_15\n      jumpi\n      dup1\n      0x9ef1204c\n      eq\n      tag_9\n      jumpi\n      dup1\n      0xb6a90065\n      eq\n      tag_10\n      jumpi\n      dup1\n      0xc697daee\n      eq\n      tag_11\n      jumpi\n      dup1\n      0xe02adad2\n      eq\n      tag_12\n      jumpi\n      dup1\n      0xe8685ba1\n      eq\n      tag_13\n      jumpi\n      dup1\n      0xf5749a8f\n      eq\n      tag_14\n      jumpi\n      jump(tag_2)\n    tag_15:\n      dup1\n      0x2ce35e11\n      eq\n      tag_3\n      jumpi\n      dup1\n      0x35b8e820\n      eq\n      tag_4\n      jumpi\n      dup1\n      0x40731c24\n      eq\n      tag_5\n      jumpi\n      dup1\n      0x65fc783c\n      eq\n      tag_6\n      jumpi\n      dup1\n      0x7d75a438\n      eq\n      tag_7\n      jumpi\n      dup1\n      0x88827c16\n      eq\n      tag_8\n      jumpi\n    tag_2:\n      0x00\n      dup1\n      revert\n        /* \"contracts/Voting.sol\":2230:2351  function getTotalVotes(uint candidateID) public view returns (uint) {... */\n    tag_3:\n      tag_16\n      0x04\n      dup1\n      calldatasize\n      sub\n      dup2\n      add\n      swap1\n      tag_17\n      swap2\n      swap1\n      tag_18\n      jump\t// in\n    tag_17:\n      tag_19\n      jump\t// in\n    tag_16:\n      mload(0x40)\n      tag_20\n      swap2\n      swap1\n      tag_21\n      jump\t// in\n    tag_20:\n      mload(0x40)\n      dup1\n      swap2\n      sub\n      swap1\n      return\n        /* \"contracts/Voting.sol\":2755:3021  function getCandidate(uint candidateID) public view returns (uint, bytes32, uint, uint, bytes32) {... */\n    tag_4:\n      tag_22\n      0x04\n      dup1\n      calldatasize\n      sub\n      dup2\n      add\n      swap1\n      tag_23\n      swap2\n      swap1\n      tag_18\n      jump\t// in\n    tag_23:\n      tag_24\n      jump\t// in\n    tag_22:\n      mload(0x40)\n      tag_25\n      swap6\n      swap5\n      swap4\n      swap3\n      swap2\n      swap1\n      tag_26\n      jump\t// in\n    tag_25:\n      mload(0x40)\n      dup1\n      swap2\n      sub\n      swap1\n      return\n        /* \"contracts/Voting.sol\":2636:2749  function getPost(uint postID) public view returns (uint, bytes32) {... */\n    tag_5:\n      tag_27\n      0x04\n      dup1\n      calldatasize\n      sub\n      dup2\n      add\n      swap1\n      tag_28\n      swap2\n      swap1\n      tag_18\n      jump\t// in\n    tag_28:\n      tag_29\n      jump\t// in\n    tag_27:\n      mload(0x40)\n      tag_30\n      swap3\n      swap2\n      swap1\n      tag_31\n      jump\t// in\n    tag_30:\n      mload(0x40)\n      dup1\n      swap2\n      sub\n      swap1\n      return\n        /* \"contracts/Voting.sol\":2456:2541  function getNumOfVoters() public view returns(uint) {... */\n    tag_6:\n      tag_32\n      tag_33\n      jump\t// in\n    tag_32:\n      mload(0x40)\n      tag_34\n      swap2\n      swap1\n      tag_21\n      jump\t// in\n    tag_34:\n      mload(0x40)\n      dup1\n      swap2\n      sub\n      swap1\n      return\n        /* \"contracts/Voting.sol\":1257:1374  function enableCandidate(uint candidateID) onlyOwner public {... */\n    tag_7:\n      tag_35\n      0x04\n      dup1\n      calldatasize\n      sub\n      dup2\n      add\n      swap1\n      tag_36\n      swap2\n      swap1\n      tag_18\n      jump\t// in\n    tag_36:\n      tag_37\n      jump\t// in\n    tag_35:\n      stop\n        /* \"contracts/Voting.sol\":1380:1507  function addPost(bytes32 postName) onlyOwner public {... */\n    tag_8:\n      tag_38\n      0x04\n      dup1\n      calldatasize\n      sub\n      dup2\n      add\n      swap1\n      tag_39\n      swap2\n      swap1\n      tag_40\n      jump\t// in\n    tag_39:\n      tag_41\n      jump\t// in\n    tag_38:\n      stop\n        /* \"contracts/Voting.sol\":1513:2224  function vote(bytes32 voterID, uint candidateID) public {... */\n    tag_9:\n      tag_42\n      0x04\n      dup1\n      calldatasize\n      sub\n      dup2\n      add\n      swap1\n      tag_43\n      swap2\n      swap1\n      tag_44\n      jump\t// in\n    tag_43:\n      tag_45\n      jump\t// in\n    tag_42:\n      stop\n        /* \"contracts/Voting.sol\":1135:1251  function dropCandidate(uint candidateID) onlyOwner public {... */\n    tag_10:\n      tag_46\n      0x04\n      dup1\n      calldatasize\n      sub\n      dup2\n      add\n      swap1\n      tag_47\n      swap2\n      swap1\n      tag_18\n      jump\t// in\n    tag_47:\n      tag_48\n      jump\t// in\n    tag_46:\n      stop\n        /* \"contracts/Voting.sol\":2547:2630  function getNumOfPosts() public view returns(uint) {... */\n    tag_11:\n      tag_49\n      tag_50\n      jump\t// in\n    tag_49:\n      mload(0x40)\n      tag_51\n      swap2\n      swap1\n      tag_21\n      jump\t// in\n    tag_51:\n      mload(0x40)\n      dup1\n      swap2\n      sub\n      swap1\n      return\n        /* \"contracts/Voting.sol\":657:852  function createVoter (bytes32 voterID, bool doesExist) public {... */\n    tag_12:\n      tag_52\n      0x04\n      dup1\n      calldatasize\n      sub\n      dup2\n      add\n      swap1\n      tag_53\n      swap2\n      swap1\n      tag_54\n      jump\t// in\n    tag_53:\n      tag_55\n      jump\t// in\n    tag_52:\n      stop\n        /* \"contracts/Voting.sol\":2357:2450  function getNumOfCandidates() public view returns(uint) {... */\n    tag_13:\n      tag_56\n      tag_57\n      jump\t// in\n    tag_56:\n      mload(0x40)\n      tag_58\n      swap2\n      swap1\n      tag_21\n      jump\t// in\n    tag_58:\n      mload(0x40)\n      dup1\n      swap2\n      sub\n      swap1\n      return\n        /* \"contracts/Voting.sol\":858:1132  function createCandidate(bytes32 name, uint postID) onlyOwner public {... */\n    tag_14:\n      tag_59\n      0x04\n      dup1\n      calldatasize\n      sub\n      dup2\n      add\n      swap1\n      tag_60\n      swap2\n      swap1\n      tag_44\n      jump\t// in\n    tag_60:\n      tag_61\n      jump\t// in\n    tag_59:\n      stop\n        /* \"contracts/Voting.sol\":2230:2351  function getTotalVotes(uint candidateID) public view returns (uint) {... */\n    tag_19:\n        /* \"contracts/Voting.sol\":2292:2296  uint */\n      0x00\n        /* \"contracts/Voting.sol\":2315:2325  candidates */\n      0x04\n        /* \"contracts/Voting.sol\":2315:2338  candidates[candidateID] */\n      0x00\n        /* \"contracts/Voting.sol\":2326:2337  candidateID */\n      dup4\n        /* \"contracts/Voting.sol\":2315:2338  candidates[candidateID] */\n      dup2\n      mstore\n      0x20\n      add\n      swap1\n      dup2\n      mstore\n      0x20\n      add\n      0x00\n      keccak256\n        /* \"contracts/Voting.sol\":2315:2344  candidates[candidateID].votes */\n      0x01\n      add\n      sload\n        /* \"contracts/Voting.sol\":2308:2344  return candidates[candidateID].votes */\n      swap1\n      pop\n        /* \"contracts/Voting.sol\":2230:2351  function getTotalVotes(uint candidateID) public view returns (uint) {... */\n      swap2\n      swap1\n      pop\n      jump\t// out\n        /* \"contracts/Voting.sol\":2755:3021  function getCandidate(uint candidateID) public view returns (uint, bytes32, uint, uint, bytes32) {... */\n    tag_24:\n        /* \"contracts/Voting.sol\":2816:2820  uint */\n      0x00\n        /* \"contracts/Voting.sol\":2822:2829  bytes32 */\n      dup1\n        /* \"contracts/Voting.sol\":2831:2835  uint */\n      0x00\n        /* \"contracts/Voting.sol\":2837:2841  uint */\n      dup1\n        /* \"contracts/Voting.sol\":2843:2850  bytes32 */\n      0x00\n        /* \"contracts/Voting.sol\":2870:2881  candidateID */\n      dup6\n        /* \"contracts/Voting.sol\":2883:2893  candidates */\n      0x04\n        /* \"contracts/Voting.sol\":2883:2906  candidates[candidateID] */\n      0x00\n        /* \"contracts/Voting.sol\":2894:2905  candidateID */\n      dup9\n        /* \"contracts/Voting.sol\":2883:2906  candidates[candidateID] */\n      dup2\n      mstore\n      0x20\n      add\n      swap1\n      dup2\n      mstore\n      0x20\n      add\n      0x00\n      keccak256\n        /* \"contracts/Voting.sol\":2883:2911  candidates[candidateID].name */\n      0x00\n      add\n      sload\n        /* \"contracts/Voting.sol\":2913:2923  candidates */\n      0x04\n        /* \"contracts/Voting.sol\":2913:2936  candidates[candidateID] */\n      0x00\n        /* \"contracts/Voting.sol\":2924:2935  candidateID */\n      dup10\n        /* \"contracts/Voting.sol\":2913:2936  candidates[candidateID] */\n      dup2\n      mstore\n      0x20\n      add\n      swap1\n      dup2\n      mstore\n      0x20\n      add\n      0x00\n      keccak256\n        /* \"contracts/Voting.sol\":2913:2942  candidates[candidateID].votes */\n      0x01\n      add\n      sload\n        /* \"contracts/Voting.sol\":2944:2954  candidates */\n      0x04\n        /* \"contracts/Voting.sol\":2944:2967  candidates[candidateID] */\n      0x00\n        /* \"contracts/Voting.sol\":2955:2966  candidateID */\n      dup11\n        /* \"contracts/Voting.sol\":2944:2967  candidates[candidateID] */\n      dup2\n      mstore\n      0x20\n      add\n      swap1\n      dup2\n      mstore\n      0x20\n      add\n      0x00\n      keccak256\n        /* \"contracts/Voting.sol\":2944:2974  candidates[candidateID].postID */\n      0x02\n      add\n      sload\n        /* \"contracts/Voting.sol\":2976:2981  posts */\n      0x06\n        /* \"contracts/Voting.sol\":2976:3013  posts[candidates[candidateID].postID] */\n      0x00\n        /* \"contracts/Voting.sol\":2982:2992  candidates */\n      0x04\n        /* \"contracts/Voting.sol\":2982:3005  candidates[candidateID] */\n      0x00\n        /* \"contracts/Voting.sol\":2993:3004  candidateID */\n      dup14\n        /* \"contracts/Voting.sol\":2982:3005  candidates[candidateID] */\n      dup2\n      mstore\n      0x20\n      add\n      swap1\n      dup2\n      mstore\n      0x20\n      add\n      0x00\n      keccak256\n        /* \"contracts/Voting.sol\":2982:3012  candidates[candidateID].postID */\n      0x02\n      add\n      sload\n        /* \"contracts/Voting.sol\":2976:3013  posts[candidates[candidateID].postID] */\n      dup2\n      mstore\n      0x20\n      add\n      swap1\n      dup2\n      mstore\n      0x20\n      add\n      0x00\n      keccak256\n      sload\n        /* \"contracts/Voting.sol\":2862:3014  return (candidateID, candidates[candidateID].name, candidates[candidateID].votes, candidates[candidateID].postID, posts[candidates[candidateID].postID]) */\n      swap5\n      pop\n      swap5\n      pop\n      swap5\n      pop\n      swap5\n      pop\n      swap5\n      pop\n        /* \"contracts/Voting.sol\":2755:3021  function getCandidate(uint candidateID) public view returns (uint, bytes32, uint, uint, bytes32) {... */\n      swap2\n      swap4\n      swap6\n      swap1\n      swap3\n      swap5\n      pop\n      jump\t// out\n        /* \"contracts/Voting.sol\":2636:2749  function getPost(uint postID) public view returns (uint, bytes32) {... */\n    tag_29:\n        /* \"contracts/Voting.sol\":2687:2691  uint */\n      0x00\n        /* \"contracts/Voting.sol\":2693:2700  bytes32 */\n      dup1\n        /* \"contracts/Voting.sol\":2720:2726  postID */\n      dup3\n        /* \"contracts/Voting.sol\":2727:2732  posts */\n      0x06\n        /* \"contracts/Voting.sol\":2727:2740  posts[postID] */\n      0x00\n        /* \"contracts/Voting.sol\":2733:2739  postID */\n      dup6\n        /* \"contracts/Voting.sol\":2727:2740  posts[postID] */\n      dup2\n      mstore\n      0x20\n      add\n      swap1\n      dup2\n      mstore\n      0x20\n      add\n      0x00\n      keccak256\n      sload\n        /* \"contracts/Voting.sol\":2712:2741  return (postID,posts[postID]) */\n      swap2\n      pop\n      swap2\n      pop\n        /* \"contracts/Voting.sol\":2636:2749  function getPost(uint postID) public view returns (uint, bytes32) {... */\n      swap2\n      pop\n      swap2\n      jump\t// out\n        /* \"contracts/Voting.sol\":2456:2541  function getNumOfVoters() public view returns(uint) {... */\n    tag_33:\n        /* \"contracts/Voting.sol\":2502:2506  uint */\n      0x00\n        /* \"contracts/Voting.sol\":2525:2534  numVoters */\n      sload(0x02)\n        /* \"contracts/Voting.sol\":2518:2534  return numVoters */\n      swap1\n      pop\n        /* \"contracts/Voting.sol\":2456:2541  function getNumOfVoters() public view returns(uint) {... */\n      swap1\n      jump\t// out\n        /* \"contracts/Voting.sol\":1257:1374  function enableCandidate(uint candidateID) onlyOwner public {... */\n    tag_37:\n        /* \"contracts/Voting.sol\":210:215  owner */\n      0x00\n      dup1\n      sload\n      swap1\n      0x0100\n      exp\n      swap1\n      div\n      0xffffffffffffffffffffffffffffffffffffffff\n      and\n        /* \"contracts/Voting.sol\":196:215  msg.sender == owner */\n      0xffffffffffffffffffffffffffffffffffffffff\n      and\n        /* \"contracts/Voting.sol\":196:206  msg.sender */\n      caller\n        /* \"contracts/Voting.sol\":196:215  msg.sender == owner */\n      0xffffffffffffffffffffffffffffffffffffffff\n      and\n      eq\n        /* \"contracts/Voting.sol\":188:216  require(msg.sender == owner) */\n      tag_67\n      jumpi\n      0x00\n      dup1\n      revert\n    tag_67:\n        /* \"contracts/Voting.sol\":1363:1367  true */\n      0x01\n        /* \"contracts/Voting.sol\":1327:1337  candidates */\n      0x04\n        /* \"contracts/Voting.sol\":1327:1350  candidates[candidateID] */\n      0x00\n        /* \"contracts/Voting.sol\":1338:1349  candidateID */\n      dup4\n        /* \"contracts/Voting.sol\":1327:1350  candidates[candidateID] */\n      dup2\n      mstore\n      0x20\n      add\n      swap1\n      dup2\n      mstore\n      0x20\n      add\n      0x00\n      keccak256\n        /* \"contracts/Voting.sol\":1327:1360  candidates[candidateID].doesExist */\n      0x03\n      add\n      0x00\n        /* \"contracts/Voting.sol\":1327:1367  candidates[candidateID].doesExist = true */\n      0x0100\n      exp\n      dup2\n      sload\n      dup2\n      0xff\n      mul\n      not\n      and\n      swap1\n      dup4\n      iszero\n      iszero\n      mul\n      or\n      swap1\n      sstore\n      pop\n        /* \"contracts/Voting.sol\":1257:1374  function enableCandidate(uint candidateID) onlyOwner public {... */\n      pop\n      jump\t// out\n        /* \"contracts/Voting.sol\":1380:1507  function addPost(bytes32 postName) onlyOwner public {... */\n    tag_41:\n        /* \"contracts/Voting.sol\":210:215  owner */\n      0x00\n      dup1\n      sload\n      swap1\n      0x0100\n      exp\n      swap1\n      div\n      0xffffffffffffffffffffffffffffffffffffffff\n      and\n        /* \"contracts/Voting.sol\":196:215  msg.sender == owner */\n      0xffffffffffffffffffffffffffffffffffffffff\n      and\n        /* \"contracts/Voting.sol\":196:206  msg.sender */\n      caller\n        /* \"contracts/Voting.sol\":196:215  msg.sender == owner */\n      0xffffffffffffffffffffffffffffffffffffffff\n      and\n      eq\n        /* \"contracts/Voting.sol\":188:216  require(msg.sender == owner) */\n      tag_70\n      jumpi\n      0x00\n      dup1\n      revert\n    tag_70:\n        /* \"contracts/Voting.sol\":1442:1453  uint postID */\n      0x00\n        /* \"contracts/Voting.sol\":1456:1464  numPosts */\n      0x03\n      0x00\n        /* \"contracts/Voting.sol\":1456:1466  numPosts++ */\n      dup2\n      sload\n      dup1\n      swap3\n      swap2\n      swap1\n      tag_72\n      swap1\n      tag_73\n      jump\t// in\n    tag_72:\n      swap2\n      swap1\n      pop\n      sstore\n        /* \"contracts/Voting.sol\":1442:1466  uint postID = numPosts++ */\n      swap1\n      pop\n        /* \"contracts/Voting.sol\":1492:1500  postName */\n      dup2\n        /* \"contracts/Voting.sol\":1476:1481  posts */\n      0x06\n        /* \"contracts/Voting.sol\":1476:1489  posts[postID] */\n      0x00\n        /* \"contracts/Voting.sol\":1482:1488  postID */\n      dup4\n        /* \"contracts/Voting.sol\":1476:1489  posts[postID] */\n      dup2\n      mstore\n      0x20\n      add\n      swap1\n      dup2\n      mstore\n      0x20\n      add\n      0x00\n      keccak256\n        /* \"contracts/Voting.sol\":1476:1500  posts[postID] = postName */\n      dup2\n      swap1\n      sstore\n      pop\n        /* \"contracts/Voting.sol\":1432:1507  {... */\n      pop\n        /* \"contracts/Voting.sol\":1380:1507  function addPost(bytes32 postName) onlyOwner public {... */\n      pop\n      jump\t// out\n        /* \"contracts/Voting.sol\":1513:2224  function vote(bytes32 voterID, uint candidateID) public {... */\n    tag_45:\n        /* \"contracts/Voting.sol\":1620:1624  true */\n      0x01\n        /* \"contracts/Voting.sol\":1583:1624  candidates[candidateID].doesExist == true */\n      iszero\n      iszero\n        /* \"contracts/Voting.sol\":1583:1593  candidates */\n      0x04\n        /* \"contracts/Voting.sol\":1583:1606  candidates[candidateID] */\n      0x00\n        /* \"contracts/Voting.sol\":1594:1605  candidateID */\n      dup4\n        /* \"contracts/Voting.sol\":1583:1606  candidates[candidateID] */\n      dup2\n      mstore\n      0x20\n      add\n      swap1\n      dup2\n      mstore\n      0x20\n      add\n      0x00\n      keccak256\n        /* \"contracts/Voting.sol\":1583:1616  candidates[candidateID].doesExist */\n      0x03\n      add\n      0x00\n      swap1\n      sload\n      swap1\n      0x0100\n      exp\n      swap1\n      div\n      0xff\n      and\n        /* \"contracts/Voting.sol\":1583:1624  candidates[candidateID].doesExist == true */\n      iszero\n      iszero\n      eq\n        /* \"contracts/Voting.sol\":1579:2218  if (candidates[candidateID].doesExist == true) {... */\n      iszero\n      tag_75\n      jumpi\n        /* \"contracts/Voting.sol\":1670:1675  false */\n      0x00\n        /* \"contracts/Voting.sol\":1641:1675  voters[voterID].doesExist == false */\n      iszero\n      iszero\n        /* \"contracts/Voting.sol\":1641:1647  voters */\n      0x05\n        /* \"contracts/Voting.sol\":1641:1656  voters[voterID] */\n      0x00\n        /* \"contracts/Voting.sol\":1648:1655  voterID */\n      dup5\n        /* \"contracts/Voting.sol\":1641:1656  voters[voterID] */\n      dup2\n      mstore\n      0x20\n      add\n      swap1\n      dup2\n      mstore\n      0x20\n      add\n      0x00\n      keccak256\n        /* \"contracts/Voting.sol\":1641:1666  voters[voterID].doesExist */\n      0x01\n      add\n      0x00\n      swap1\n      sload\n      swap1\n      0x0100\n      exp\n      swap1\n      div\n      0xff\n      and\n        /* \"contracts/Voting.sol\":1641:1675  voters[voterID].doesExist == false */\n      iszero\n      iszero\n      eq\n        /* \"contracts/Voting.sol\":1637:1727  if (voters[voterID].doesExist == false) {... */\n      iszero\n      tag_76\n      jumpi\n        /* \"contracts/Voting.sol\":1689:1715  createVoter(voterID, true) */\n      tag_77\n        /* \"contracts/Voting.sol\":1701:1708  voterID */\n      dup3\n        /* \"contracts/Voting.sol\":1710:1714  true */\n      0x01\n        /* \"contracts/Voting.sol\":1689:1700  createVoter */\n      tag_55\n        /* \"contracts/Voting.sol\":1689:1715  createVoter(voterID, true) */\n      jump\t// in\n    tag_77:\n        /* \"contracts/Voting.sol\":1637:1727  if (voters[voterID].doesExist == false) {... */\n    tag_76:\n        /* \"contracts/Voting.sol\":1741:1747  voters */\n      0x05\n        /* \"contracts/Voting.sol\":1741:1756  voters[voterID] */\n      0x00\n        /* \"contracts/Voting.sol\":1748:1755  voterID */\n      dup4\n        /* \"contracts/Voting.sol\":1741:1756  voters[voterID] */\n      dup2\n      mstore\n      0x20\n      add\n      swap1\n      dup2\n      mstore\n      0x20\n      add\n      0x00\n      keccak256\n        /* \"contracts/Voting.sol\":1741:1767  voters[voterID].votedPosts */\n      0x02\n      add\n        /* \"contracts/Voting.sol\":1741:1799  voters[voterID].votedPosts[candidates[candidateID].postID] */\n      0x00\n        /* \"contracts/Voting.sol\":1768:1778  candidates */\n      0x04\n        /* \"contracts/Voting.sol\":1768:1791  candidates[candidateID] */\n      0x00\n        /* \"contracts/Voting.sol\":1779:1790  candidateID */\n      dup5\n        /* \"contracts/Voting.sol\":1768:1791  candidates[candidateID] */\n      dup2\n      mstore\n      0x20\n      add\n      swap1\n      dup2\n      mstore\n      0x20\n      add\n      0x00\n      keccak256\n        /* \"contracts/Voting.sol\":1768:1798  candidates[candidateID].postID */\n      0x02\n      add\n      sload\n        /* \"contracts/Voting.sol\":1741:1799  voters[voterID].votedPosts[candidates[candidateID].postID] */\n      dup2\n      mstore\n      0x20\n      add\n      swap1\n      dup2\n      mstore\n      0x20\n      add\n      0x00\n      keccak256\n      0x00\n      swap1\n      sload\n      swap1\n      0x0100\n      exp\n      swap1\n      div\n      0xff\n      and\n        /* \"contracts/Voting.sol\":1737:2113  if (voters[voterID].votedPosts[candidates[candidateID].postID]) {... */\n      iszero\n      tag_78\n      jumpi\n        /* \"contracts/Voting.sol\":1818:1882  VoteResult(\"Your vote for this post has already been recorded.\") */\n      0xba6ae3dbd1f39a6286aa8cb6d47d3e2e1aa302819730506f57e9aeb76ad03997\n      mload(0x40)\n      tag_79\n      swap1\n      tag_80\n      jump\t// in\n    tag_79:\n      mload(0x40)\n      dup1\n      swap2\n      sub\n      swap1\n      log1\n        /* \"contracts/Voting.sol\":1737:2113  if (voters[voterID].votedPosts[candidates[candidateID].postID]) {... */\n      jump(tag_81)\n    tag_78:\n        /* \"contracts/Voting.sol\":1973:1977  true */\n      0x01\n        /* \"contracts/Voting.sol\":1912:1918  voters */\n      0x05\n        /* \"contracts/Voting.sol\":1912:1927  voters[voterID] */\n      0x00\n        /* \"contracts/Voting.sol\":1919:1926  voterID */\n      dup5\n        /* \"contracts/Voting.sol\":1912:1927  voters[voterID] */\n      dup2\n      mstore\n      0x20\n      add\n      swap1\n      dup2\n      mstore\n      0x20\n      add\n      0x00\n      keccak256\n        /* \"contracts/Voting.sol\":1912:1938  voters[voterID].votedPosts */\n      0x02\n      add\n        /* \"contracts/Voting.sol\":1912:1970  voters[voterID].votedPosts[candidates[candidateID].postID] */\n      0x00\n        /* \"contracts/Voting.sol\":1939:1949  candidates */\n      0x04\n        /* \"contracts/Voting.sol\":1939:1962  candidates[candidateID] */\n      0x00\n        /* \"contracts/Voting.sol\":1950:1961  candidateID */\n      dup6\n        /* \"contracts/Voting.sol\":1939:1962  candidates[candidateID] */\n      dup2\n      mstore\n      0x20\n      add\n      swap1\n      dup2\n      mstore\n      0x20\n      add\n      0x00\n      keccak256\n        /* \"contracts/Voting.sol\":1939:1969  candidates[candidateID].postID */\n      0x02\n      add\n      sload\n        /* \"contracts/Voting.sol\":1912:1970  voters[voterID].votedPosts[candidates[candidateID].postID] */\n      dup2\n      mstore\n      0x20\n      add\n      swap1\n      dup2\n      mstore\n      0x20\n      add\n      0x00\n      keccak256\n      0x00\n        /* \"contracts/Voting.sol\":1912:1977  voters[voterID].votedPosts[candidates[candidateID].postID] = true */\n      0x0100\n      exp\n      dup2\n      sload\n      dup2\n      0xff\n      mul\n      not\n      and\n      swap1\n      dup4\n      iszero\n      iszero\n      mul\n      or\n      swap1\n      sstore\n      pop\n        /* \"contracts/Voting.sol\":1989:1999  candidates */\n      0x04\n        /* \"contracts/Voting.sol\":1989:2012  candidates[candidateID] */\n      0x00\n        /* \"contracts/Voting.sol\":2000:2011  candidateID */\n      dup3\n        /* \"contracts/Voting.sol\":1989:2012  candidates[candidateID] */\n      dup2\n      mstore\n      0x20\n      add\n      swap1\n      dup2\n      mstore\n      0x20\n      add\n      0x00\n      keccak256\n        /* \"contracts/Voting.sol\":1989:2018  candidates[candidateID].votes */\n      0x01\n      add\n      0x00\n        /* \"contracts/Voting.sol\":1989:2020  candidates[candidateID].votes++ */\n      dup2\n      sload\n      dup1\n      swap3\n      swap2\n      swap1\n      tag_82\n      swap1\n      tag_73\n      jump\t// in\n    tag_82:\n      swap2\n      swap1\n      pop\n      sstore\n      pop\n        /* \"contracts/Voting.sol\":2043:2101  VoteResult(\"Vote for current post successfully recorded.\") */\n      0xba6ae3dbd1f39a6286aa8cb6d47d3e2e1aa302819730506f57e9aeb76ad03997\n      mload(0x40)\n      tag_83\n      swap1\n      tag_84\n      jump\t// in\n    tag_83:\n      mload(0x40)\n      dup1\n      swap2\n      sub\n      swap1\n      log1\n        /* \"contracts/Voting.sol\":1737:2113  if (voters[voterID].votedPosts[candidates[candidateID].postID]) {... */\n    tag_81:\n        /* \"contracts/Voting.sol\":1579:2218  if (candidates[candidateID].doesExist == true) {... */\n      jump(tag_85)\n    tag_75:\n        /* \"contracts/Voting.sol\":2145:2207  VoteResult(\"The candidate you are voting for does not exist.\") */\n      0xba6ae3dbd1f39a6286aa8cb6d47d3e2e1aa302819730506f57e9aeb76ad03997\n      mload(0x40)\n      tag_86\n      swap1\n      tag_87\n      jump\t// in\n    tag_86:\n      mload(0x40)\n      dup1\n      swap2\n      sub\n      swap1\n      log1\n        /* \"contracts/Voting.sol\":1579:2218  if (candidates[candidateID].doesExist == true) {... */\n    tag_85:\n        /* \"contracts/Voting.sol\":1513:2224  function vote(bytes32 voterID, uint candidateID) public {... */\n      pop\n      pop\n      jump\t// out\n        /* \"contracts/Voting.sol\":1135:1251  function dropCandidate(uint candidateID) onlyOwner public {... */\n    tag_48:\n        /* \"contracts/Voting.sol\":210:215  owner */\n      0x00\n      dup1\n      sload\n      swap1\n      0x0100\n      exp\n      swap1\n      div\n      0xffffffffffffffffffffffffffffffffffffffff\n      and\n        /* \"contracts/Voting.sol\":196:215  msg.sender == owner */\n      0xffffffffffffffffffffffffffffffffffffffff\n      and\n        /* \"contracts/Voting.sol\":196:206  msg.sender */\n      caller\n        /* \"contracts/Voting.sol\":196:215  msg.sender == owner */\n      0xffffffffffffffffffffffffffffffffffffffff\n      and\n      eq\n        /* \"contracts/Voting.sol\":188:216  require(msg.sender == owner) */\n      tag_89\n      jumpi\n      0x00\n      dup1\n      revert\n    tag_89:\n        /* \"contracts/Voting.sol\":1239:1244  false */\n      0x00\n        /* \"contracts/Voting.sol\":1203:1213  candidates */\n      0x04\n        /* \"contracts/Voting.sol\":1203:1226  candidates[candidateID] */\n      0x00\n        /* \"contracts/Voting.sol\":1214:1225  candidateID */\n      dup4\n        /* \"contracts/Voting.sol\":1203:1226  candidates[candidateID] */\n      dup2\n      mstore\n      0x20\n      add\n      swap1\n      dup2\n      mstore\n      0x20\n      add\n      0x00\n      keccak256\n        /* \"contracts/Voting.sol\":1203:1236  candidates[candidateID].doesExist */\n      0x03\n      add\n      0x00\n        /* \"contracts/Voting.sol\":1203:1244  candidates[candidateID].doesExist = false */\n      0x0100\n      exp\n      dup2\n      sload\n      dup2\n      0xff\n      mul\n      not\n      and\n      swap1\n      dup4\n      iszero\n      iszero\n      mul\n      or\n      swap1\n      sstore\n      pop\n        /* \"contracts/Voting.sol\":1135:1251  function dropCandidate(uint candidateID) onlyOwner public {... */\n      pop\n      jump\t// out\n        /* \"contracts/Voting.sol\":2547:2630  function getNumOfPosts() public view returns(uint) {... */\n    tag_50:\n        /* \"contracts/Voting.sol\":2592:2596  uint */\n      0x00\n        /* \"contracts/Voting.sol\":2615:2623  numPosts */\n      sload(0x03)\n        /* \"contracts/Voting.sol\":2608:2623  return numPosts */\n      swap1\n      pop\n        /* \"contracts/Voting.sol\":2547:2630  function getNumOfPosts() public view returns(uint) {... */\n      swap1\n      jump\t// out\n        /* \"contracts/Voting.sol\":657:852  function createVoter (bytes32 voterID, bool doesExist) public {... */\n    tag_55:\n        /* \"contracts/Voting.sol\":729:744  Voter storage v */\n      0x00\n        /* \"contracts/Voting.sol\":747:753  voters */\n      0x05\n        /* \"contracts/Voting.sol\":747:762  voters[voterID] */\n      0x00\n        /* \"contracts/Voting.sol\":754:761  voterID */\n      dup5\n        /* \"contracts/Voting.sol\":747:762  voters[voterID] */\n      dup2\n      mstore\n      0x20\n      add\n      swap1\n      dup2\n      mstore\n      0x20\n      add\n      0x00\n      keccak256\n        /* \"contracts/Voting.sol\":729:762  Voter storage v = voters[voterID] */\n      swap1\n      pop\n        /* \"contracts/Voting.sol\":784:791  voterID */\n      dup3\n        /* \"contracts/Voting.sol\":772:773  v */\n      dup2\n        /* \"contracts/Voting.sol\":772:781  v.voterID */\n      0x00\n      add\n        /* \"contracts/Voting.sol\":772:791  v.voterID = voterID */\n      dup2\n      swap1\n      sstore\n      pop\n        /* \"contracts/Voting.sol\":815:824  doesExist */\n      dup2\n        /* \"contracts/Voting.sol\":801:802  v */\n      dup2\n        /* \"contracts/Voting.sol\":801:812  v.doesExist */\n      0x01\n      add\n      0x00\n        /* \"contracts/Voting.sol\":801:824  v.doesExist = doesExist */\n      0x0100\n      exp\n      dup2\n      sload\n      dup2\n      0xff\n      mul\n      not\n      and\n      swap1\n      dup4\n      iszero\n      iszero\n      mul\n      or\n      swap1\n      sstore\n      pop\n        /* \"contracts/Voting.sol\":834:843  numVoters */\n      0x02\n      0x00\n        /* \"contracts/Voting.sol\":834:845  numVoters++ */\n      dup2\n      sload\n      dup1\n      swap3\n      swap2\n      swap1\n      tag_93\n      swap1\n      tag_73\n      jump\t// in\n    tag_93:\n      swap2\n      swap1\n      pop\n      sstore\n      pop\n        /* \"contracts/Voting.sol\":719:852  {... */\n      pop\n        /* \"contracts/Voting.sol\":657:852  function createVoter (bytes32 voterID, bool doesExist) public {... */\n      pop\n      pop\n      jump\t// out\n        /* \"contracts/Voting.sol\":2357:2450  function getNumOfCandidates() public view returns(uint) {... */\n    tag_57:\n        /* \"contracts/Voting.sol\":2407:2411  uint */\n      0x00\n        /* \"contracts/Voting.sol\":2430:2443  numCandidates */\n      sload(0x01)\n        /* \"contracts/Voting.sol\":2423:2443  return numCandidates */\n      swap1\n      pop\n        /* \"contracts/Voting.sol\":2357:2450  function getNumOfCandidates() public view returns(uint) {... */\n      swap1\n      jump\t// out\n        /* \"contracts/Voting.sol\":858:1132  function createCandidate(bytes32 name, uint postID) onlyOwner public {... */\n    tag_61:\n        /* \"contracts/Voting.sol\":210:215  owner */\n      0x00\n      dup1\n      sload\n      swap1\n      0x0100\n      exp\n      swap1\n      div\n      0xffffffffffffffffffffffffffffffffffffffff\n      and\n        /* \"contracts/Voting.sol\":196:215  msg.sender == owner */\n      0xffffffffffffffffffffffffffffffffffffffff\n      and\n        /* \"contracts/Voting.sol\":196:206  msg.sender */\n      caller\n        /* \"contracts/Voting.sol\":196:215  msg.sender == owner */\n      0xffffffffffffffffffffffffffffffffffffffff\n      and\n      eq\n        /* \"contracts/Voting.sol\":188:216  require(msg.sender == owner) */\n      tag_96\n      jumpi\n      0x00\n      dup1\n      revert\n    tag_96:\n        /* \"contracts/Voting.sol\":937:953  uint candidateID */\n      0x00\n        /* \"contracts/Voting.sol\":956:969  numCandidates */\n      0x01\n      0x00\n        /* \"contracts/Voting.sol\":956:971  numCandidates++ */\n      dup2\n      sload\n      dup1\n      swap3\n      swap2\n      swap1\n      tag_98\n      swap1\n      tag_73\n      jump\t// in\n    tag_98:\n      swap2\n      swap1\n      pop\n      sstore\n        /* \"contracts/Voting.sol\":937:971  uint candidateID = numCandidates++ */\n      swap1\n      pop\n        /* \"contracts/Voting.sol\":981:1000  Candidate storage c */\n      0x00\n        /* \"contracts/Voting.sol\":1003:1013  candidates */\n      0x04\n        /* \"contracts/Voting.sol\":1003:1026  candidates[candidateID] */\n      0x00\n        /* \"contracts/Voting.sol\":1014:1025  candidateID */\n      dup4\n        /* \"contracts/Voting.sol\":1003:1026  candidates[candidateID] */\n      dup2\n      mstore\n      0x20\n      add\n      swap1\n      dup2\n      mstore\n      0x20\n      add\n      0x00\n      keccak256\n        /* \"contracts/Voting.sol\":981:1026  Candidate storage c = candidates[candidateID] */\n      swap1\n      pop\n        /* \"contracts/Voting.sol\":1045:1049  name */\n      dup4\n        /* \"contracts/Voting.sol\":1036:1037  c */\n      dup2\n        /* \"contracts/Voting.sol\":1036:1042  c.name */\n      0x00\n      add\n        /* \"contracts/Voting.sol\":1036:1049  c.name = name */\n      dup2\n      swap1\n      sstore\n      pop\n        /* \"contracts/Voting.sol\":1069:1070  0 */\n      0x00\n        /* \"contracts/Voting.sol\":1059:1060  c */\n      dup2\n        /* \"contracts/Voting.sol\":1059:1066  c.votes */\n      0x01\n      add\n        /* \"contracts/Voting.sol\":1059:1070  c.votes = 0 */\n      dup2\n      swap1\n      sstore\n      pop\n        /* \"contracts/Voting.sol\":1091:1097  postID */\n      dup3\n        /* \"contracts/Voting.sol\":1080:1081  c */\n      dup2\n        /* \"contracts/Voting.sol\":1080:1088  c.postID */\n      0x02\n      add\n        /* \"contracts/Voting.sol\":1080:1097  c.postID = postID */\n      dup2\n      swap1\n      sstore\n      pop\n        /* \"contracts/Voting.sol\":1121:1125  true */\n      0x01\n        /* \"contracts/Voting.sol\":1107:1108  c */\n      dup2\n        /* \"contracts/Voting.sol\":1107:1118  c.doesExist */\n      0x03\n      add\n      0x00\n        /* \"contracts/Voting.sol\":1107:1125  c.doesExist = true */\n      0x0100\n      exp\n      dup2\n      sload\n      dup2\n      0xff\n      mul\n      not\n      and\n      swap1\n      dup4\n      iszero\n      iszero\n      mul\n      or\n      swap1\n      sstore\n      pop\n        /* \"contracts/Voting.sol\":927:1132  {... */\n      pop\n      pop\n        /* \"contracts/Voting.sol\":858:1132  function createCandidate(bytes32 name, uint postID) onlyOwner public {... */\n      pop\n      pop\n      jump\t// out\n        /* \"#utility.yul\":7:140   */\n    tag_100:\n        /* \"#utility.yul\":50:55   */\n      0x00\n        /* \"#utility.yul\":88:94   */\n      dup2\n        /* \"#utility.yul\":75:95   */\n      calldataload\n        /* \"#utility.yul\":66:95   */\n      swap1\n      pop\n        /* \"#utility.yul\":104:134   */\n      tag_102\n        /* \"#utility.yul\":128:133   */\n      dup2\n        /* \"#utility.yul\":104:134   */\n      tag_103\n      jump\t// in\n    tag_102:\n        /* \"#utility.yul\":7:140   */\n      swap3\n      swap2\n      pop\n      pop\n      jump\t// out\n        /* \"#utility.yul\":146:285   */\n    tag_104:\n        /* \"#utility.yul\":192:197   */\n      0x00\n        /* \"#utility.yul\":230:236   */\n      dup2\n        /* \"#utility.yul\":217:237   */\n      calldataload\n        /* \"#utility.yul\":208:237   */\n      swap1\n      pop\n        /* \"#utility.yul\":246:279   */\n      tag_106\n        /* \"#utility.yul\":273:278   */\n      dup2\n        /* \"#utility.yul\":246:279   */\n      tag_107\n      jump\t// in\n    tag_106:\n        /* \"#utility.yul\":146:285   */\n      swap3\n      swap2\n      pop\n      pop\n      jump\t// out\n        /* \"#utility.yul\":291:430   */\n    tag_108:\n        /* \"#utility.yul\":337:342   */\n      0x00\n        /* \"#utility.yul\":375:381   */\n      dup2\n        /* \"#utility.yul\":362:382   */\n      calldataload\n        /* \"#utility.yul\":353:382   */\n      swap1\n      pop\n        /* \"#utility.yul\":391:424   */\n      tag_110\n        /* \"#utility.yul\":418:423   */\n      dup2\n        /* \"#utility.yul\":391:424   */\n      tag_111\n      jump\t// in\n    tag_110:\n        /* \"#utility.yul\":291:430   */\n      swap3\n      swap2\n      pop\n      pop\n      jump\t// out\n        /* \"#utility.yul\":436:765   */\n    tag_40:\n        /* \"#utility.yul\":495:501   */\n      0x00\n        /* \"#utility.yul\":544:546   */\n      0x20\n        /* \"#utility.yul\":532:541   */\n      dup3\n        /* \"#utility.yul\":523:530   */\n      dup5\n        /* \"#utility.yul\":519:542   */\n      sub\n        /* \"#utility.yul\":515:547   */\n      slt\n        /* \"#utility.yul\":512:631   */\n      iszero\n      tag_113\n      jumpi\n        /* \"#utility.yul\":550:629   */\n      tag_114\n      tag_115\n      jump\t// in\n    tag_114:\n        /* \"#utility.yul\":512:631   */\n    tag_113:\n        /* \"#utility.yul\":670:671   */\n      0x00\n        /* \"#utility.yul\":695:748   */\n      tag_116\n        /* \"#utility.yul\":740:747   */\n      dup5\n        /* \"#utility.yul\":731:737   */\n      dup3\n        /* \"#utility.yul\":720:729   */\n      dup6\n        /* \"#utility.yul\":716:738   */\n      add\n        /* \"#utility.yul\":695:748   */\n      tag_104\n      jump\t// in\n    tag_116:\n        /* \"#utility.yul\":685:748   */\n      swap2\n      pop\n        /* \"#utility.yul\":641:758   */\n      pop\n        /* \"#utility.yul\":436:765   */\n      swap3\n      swap2\n      pop\n      pop\n      jump\t// out\n        /* \"#utility.yul\":771:1239   */\n    tag_54:\n        /* \"#utility.yul\":836:842   */\n      0x00\n        /* \"#utility.yul\":844:850   */\n      dup1\n        /* \"#utility.yul\":893:895   */\n      0x40\n        /* \"#utility.yul\":881:890   */\n      dup4\n        /* \"#utility.yul\":872:879   */\n      dup6\n        /* \"#utility.yul\":868:891   */\n      sub\n        /* \"#utility.yul\":864:896   */\n      slt\n        /* \"#utility.yul\":861:980   */\n      iszero\n      tag_118\n      jumpi\n        /* \"#utility.yul\":899:978   */\n      tag_119\n      tag_115\n      jump\t// in\n    tag_119:\n        /* \"#utility.yul\":861:980   */\n    tag_118:\n        /* \"#utility.yul\":1019:1020   */\n      0x00\n        /* \"#utility.yul\":1044:1097   */\n      tag_120\n        /* \"#utility.yul\":1089:1096   */\n      dup6\n        /* \"#utility.yul\":1080:1086   */\n      dup3\n        /* \"#utility.yul\":1069:1078   */\n      dup7\n        /* \"#utility.yul\":1065:1087   */\n      add\n        /* \"#utility.yul\":1044:1097   */\n      tag_104\n      jump\t// in\n    tag_120:\n        /* \"#utility.yul\":1034:1097   */\n      swap3\n      pop\n        /* \"#utility.yul\":990:1107   */\n      pop\n        /* \"#utility.yul\":1146:1148   */\n      0x20\n        /* \"#utility.yul\":1172:1222   */\n      tag_121\n        /* \"#utility.yul\":1214:1221   */\n      dup6\n        /* \"#utility.yul\":1205:1211   */\n      dup3\n        /* \"#utility.yul\":1194:1203   */\n      dup7\n        /* \"#utility.yul\":1190:1212   */\n      add\n        /* \"#utility.yul\":1172:1222   */\n      tag_100\n      jump\t// in\n    tag_121:\n        /* \"#utility.yul\":1162:1222   */\n      swap2\n      pop\n        /* \"#utility.yul\":1117:1232   */\n      pop\n        /* \"#utility.yul\":771:1239   */\n      swap3\n      pop\n      swap3\n      swap1\n      pop\n      jump\t// out\n        /* \"#utility.yul\":1245:1719   */\n    tag_44:\n        /* \"#utility.yul\":1313:1319   */\n      0x00\n        /* \"#utility.yul\":1321:1327   */\n      dup1\n        /* \"#utility.yul\":1370:1372   */\n      0x40\n        /* \"#utility.yul\":1358:1367   */\n      dup4\n        /* \"#utility.yul\":1349:1356   */\n      dup6\n        /* \"#utility.yul\":1345:1368   */\n      sub\n        /* \"#utility.yul\":1341:1373   */\n      slt\n        /* \"#utility.yul\":1338:1457   */\n      iszero\n      tag_123\n      jumpi\n        /* \"#utility.yul\":1376:1455   */\n      tag_124\n      tag_115\n      jump\t// in\n    tag_124:\n        /* \"#utility.yul\":1338:1457   */\n    tag_123:\n        /* \"#utility.yul\":1496:1497   */\n      0x00\n        /* \"#utility.yul\":1521:1574   */\n      tag_125\n        /* \"#utility.yul\":1566:1573   */\n      dup6\n        /* \"#utility.yul\":1557:1563   */\n      dup3\n        /* \"#utility.yul\":1546:1555   */\n      dup7\n        /* \"#utility.yul\":1542:1564   */\n      add\n        /* \"#utility.yul\":1521:1574   */\n      tag_104\n      jump\t// in\n    tag_125:\n        /* \"#utility.yul\":1511:1574   */\n      swap3\n      pop\n        /* \"#utility.yul\":1467:1584   */\n      pop\n        /* \"#utility.yul\":1623:1625   */\n      0x20\n        /* \"#utility.yul\":1649:1702   */\n      tag_126\n        /* \"#utility.yul\":1694:1701   */\n      dup6\n        /* \"#utility.yul\":1685:1691   */\n      dup3\n        /* \"#utility.yul\":1674:1683   */\n      dup7\n        /* \"#utility.yul\":1670:1692   */\n      add\n        /* \"#utility.yul\":1649:1702   */\n      tag_108\n      jump\t// in\n    tag_126:\n        /* \"#utility.yul\":1639:1702   */\n      swap2\n      pop\n        /* \"#utility.yul\":1594:1712   */\n      pop\n        /* \"#utility.yul\":1245:1719   */\n      swap3\n      pop\n      swap3\n      swap1\n      pop\n      jump\t// out\n        /* \"#utility.yul\":1725:2054   */\n    tag_18:\n        /* \"#utility.yul\":1784:1790   */\n      0x00\n        /* \"#utility.yul\":1833:1835   */\n      0x20\n        /* \"#utility.yul\":1821:1830   */\n      dup3\n        /* \"#utility.yul\":1812:1819   */\n      dup5\n        /* \"#utility.yul\":1808:1831   */\n      sub\n        /* \"#utility.yul\":1804:1836   */\n      slt\n        /* \"#utility.yul\":1801:1920   */\n      iszero\n      tag_128\n      jumpi\n        /* \"#utility.yul\":1839:1918   */\n      tag_129\n      tag_115\n      jump\t// in\n    tag_129:\n        /* \"#utility.yul\":1801:1920   */\n    tag_128:\n        /* \"#utility.yul\":1959:1960   */\n      0x00\n        /* \"#utility.yul\":1984:2037   */\n      tag_130\n        /* \"#utility.yul\":2029:2036   */\n      dup5\n        /* \"#utility.yul\":2020:2026   */\n      dup3\n        /* \"#utility.yul\":2009:2018   */\n      dup6\n        /* \"#utility.yul\":2005:2027   */\n      add\n        /* \"#utility.yul\":1984:2037   */\n      tag_108\n      jump\t// in\n    tag_130:\n        /* \"#utility.yul\":1974:2037   */\n      swap2\n      pop\n        /* \"#utility.yul\":1930:2047   */\n      pop\n        /* \"#utility.yul\":1725:2054   */\n      swap3\n      swap2\n      pop\n      pop\n      jump\t// out\n        /* \"#utility.yul\":2060:2178   */\n    tag_131:\n        /* \"#utility.yul\":2147:2171   */\n      tag_133\n        /* \"#utility.yul\":2165:2170   */\n      dup2\n        /* \"#utility.yul\":2147:2171   */\n      tag_134\n      jump\t// in\n    tag_133:\n        /* \"#utility.yul\":2142:2145   */\n      dup3\n        /* \"#utility.yul\":2135:2172   */\n      mstore\n        /* \"#utility.yul\":2060:2178   */\n      pop\n      pop\n      jump\t// out\n        /* \"#utility.yul\":2184:2550   */\n    tag_135:\n        /* \"#utility.yul\":2326:2329   */\n      0x00\n        /* \"#utility.yul\":2347:2414   */\n      tag_137\n        /* \"#utility.yul\":2411:2413   */\n      0x30\n        /* \"#utility.yul\":2406:2409   */\n      dup4\n        /* \"#utility.yul\":2347:2414   */\n      tag_138\n      jump\t// in\n    tag_137:\n        /* \"#utility.yul\":2340:2414   */\n      swap2\n      pop\n        /* \"#utility.yul\":2423:2516   */\n      tag_139\n        /* \"#utility.yul\":2512:2515   */\n      dup3\n        /* \"#utility.yul\":2423:2516   */\n      tag_140\n      jump\t// in\n    tag_139:\n        /* \"#utility.yul\":2541:2543   */\n      0x40\n        /* \"#utility.yul\":2536:2539   */\n      dup3\n        /* \"#utility.yul\":2532:2544   */\n      add\n        /* \"#utility.yul\":2525:2544   */\n      swap1\n      pop\n        /* \"#utility.yul\":2184:2550   */\n      swap2\n      swap1\n      pop\n      jump\t// out\n        /* \"#utility.yul\":2556:2922   */\n    tag_141:\n        /* \"#utility.yul\":2698:2701   */\n      0x00\n        /* \"#utility.yul\":2719:2786   */\n      tag_143\n        /* \"#utility.yul\":2783:2785   */\n      0x32\n        /* \"#utility.yul\":2778:2781   */\n      dup4\n        /* \"#utility.yul\":2719:2786   */\n      tag_138\n      jump\t// in\n    tag_143:\n        /* \"#utility.yul\":2712:2786   */\n      swap2\n      pop\n        /* \"#utility.yul\":2795:2888   */\n      tag_144\n        /* \"#utility.yul\":2884:2887   */\n      dup3\n        /* \"#utility.yul\":2795:2888   */\n      tag_145\n      jump\t// in\n    tag_144:\n        /* \"#utility.yul\":2913:2915   */\n      0x40\n        /* \"#utility.yul\":2908:2911   */\n      dup3\n        /* \"#utility.yul\":2904:2916   */\n      add\n        /* \"#utility.yul\":2897:2916   */\n      swap1\n      pop\n        /* \"#utility.yul\":2556:2922   */\n      swap2\n      swap1\n      pop\n      jump\t// out\n        /* \"#utility.yul\":2928:3294   */\n    tag_146:\n        /* \"#utility.yul\":3070:3073   */\n      0x00\n        /* \"#utility.yul\":3091:3158   */\n      tag_148\n        /* \"#utility.yul\":3155:3157   */\n      0x2c\n        /* \"#utility.yul\":3150:3153   */\n      dup4\n        /* \"#utility.yul\":3091:3158   */\n      tag_138\n      jump\t// in\n    tag_148:\n        /* \"#utility.yul\":3084:3158   */\n      swap2\n      pop\n        /* \"#utility.yul\":3167:3260   */\n      tag_149\n        /* \"#utility.yul\":3256:3259   */\n      dup3\n        /* \"#utility.yul\":3167:3260   */\n      tag_150\n      jump\t// in\n    tag_149:\n        /* \"#utility.yul\":3285:3287   */\n      0x40\n        /* \"#utility.yul\":3280:3283   */\n      dup3\n        /* \"#utility.yul\":3276:3288   */\n      add\n        /* \"#utility.yul\":3269:3288   */\n      swap1\n      pop\n        /* \"#utility.yul\":2928:3294   */\n      swap2\n      swap1\n      pop\n      jump\t// out\n        /* \"#utility.yul\":3300:3418   */\n    tag_151:\n        /* \"#utility.yul\":3387:3411   */\n      tag_153\n        /* \"#utility.yul\":3405:3410   */\n      dup2\n        /* \"#utility.yul\":3387:3411   */\n      tag_154\n      jump\t// in\n    tag_153:\n        /* \"#utility.yul\":3382:3385   */\n      dup3\n        /* \"#utility.yul\":3375:3412   */\n      mstore\n        /* \"#utility.yul\":3300:3418   */\n      pop\n      pop\n      jump\t// out\n        /* \"#utility.yul\":3424:3843   */\n    tag_87:\n        /* \"#utility.yul\":3590:3594   */\n      0x00\n        /* \"#utility.yul\":3628:3630   */\n      0x20\n        /* \"#utility.yul\":3617:3626   */\n      dup3\n        /* \"#utility.yul\":3613:3631   */\n      add\n        /* \"#utility.yul\":3605:3631   */\n      swap1\n      pop\n        /* \"#utility.yul\":3677:3686   */\n      dup2\n        /* \"#utility.yul\":3671:3675   */\n      dup2\n        /* \"#utility.yul\":3667:3687   */\n      sub\n        /* \"#utility.yul\":3663:3664   */\n      0x00\n        /* \"#utility.yul\":3652:3661   */\n      dup4\n        /* \"#utility.yul\":3648:3665   */\n      add\n        /* \"#utility.yul\":3641:3688   */\n      mstore\n        /* \"#utility.yul\":3705:3836   */\n      tag_156\n        /* \"#utility.yul\":3831:3835   */\n      dup2\n        /* \"#utility.yul\":3705:3836   */\n      tag_135\n      jump\t// in\n    tag_156:\n        /* \"#utility.yul\":3697:3836   */\n      swap1\n      pop\n        /* \"#utility.yul\":3424:3843   */\n      swap2\n      swap1\n      pop\n      jump\t// out\n        /* \"#utility.yul\":3849:4268   */\n    tag_80:\n        /* \"#utility.yul\":4015:4019   */\n      0x00\n        /* \"#utility.yul\":4053:4055   */\n      0x20\n        /* \"#utility.yul\":4042:4051   */\n      dup3\n        /* \"#utility.yul\":4038:4056   */\n      add\n        /* \"#utility.yul\":4030:4056   */\n      swap1\n      pop\n        /* \"#utility.yul\":4102:4111   */\n      dup2\n        /* \"#utility.yul\":4096:4100   */\n      dup2\n        /* \"#utility.yul\":4092:4112   */\n      sub\n        /* \"#utility.yul\":4088:4089   */\n      0x00\n        /* \"#utility.yul\":4077:4086   */\n      dup4\n        /* \"#utility.yul\":4073:4090   */\n      add\n        /* \"#utility.yul\":4066:4113   */\n      mstore\n        /* \"#utility.yul\":4130:4261   */\n      tag_158\n        /* \"#utility.yul\":4256:4260   */\n      dup2\n        /* \"#utility.yul\":4130:4261   */\n      tag_141\n      jump\t// in\n    tag_158:\n        /* \"#utility.yul\":4122:4261   */\n      swap1\n      pop\n        /* \"#utility.yul\":3849:4268   */\n      swap2\n      swap1\n      pop\n      jump\t// out\n        /* \"#utility.yul\":4274:4693   */\n    tag_84:\n        /* \"#utility.yul\":4440:4444   */\n      0x00\n        /* \"#utility.yul\":4478:4480   */\n      0x20\n        /* \"#utility.yul\":4467:4476   */\n      dup3\n        /* \"#utility.yul\":4463:4481   */\n      add\n        /* \"#utility.yul\":4455:4481   */\n      swap1\n      pop\n        /* \"#utility.yul\":4527:4536   */\n      dup2\n        /* \"#utility.yul\":4521:4525   */\n      dup2\n        /* \"#utility.yul\":4517:4537   */\n      sub\n        /* \"#utility.yul\":4513:4514   */\n      0x00\n        /* \"#utility.yul\":4502:4511   */\n      dup4\n        /* \"#utility.yul\":4498:4515   */\n      add\n        /* \"#utility.yul\":4491:4538   */\n      mstore\n        /* \"#utility.yul\":4555:4686   */\n      tag_160\n        /* \"#utility.yul\":4681:4685   */\n      dup2\n        /* \"#utility.yul\":4555:4686   */\n      tag_146\n      jump\t// in\n    tag_160:\n        /* \"#utility.yul\":4547:4686   */\n      swap1\n      pop\n        /* \"#utility.yul\":4274:4693   */\n      swap2\n      swap1\n      pop\n      jump\t// out\n        /* \"#utility.yul\":4699:4921   */\n    tag_21:\n        /* \"#utility.yul\":4792:4796   */\n      0x00\n        /* \"#utility.yul\":4830:4832   */\n      0x20\n        /* \"#utility.yul\":4819:4828   */\n      dup3\n        /* \"#utility.yul\":4815:4833   */\n      add\n        /* \"#utility.yul\":4807:4833   */\n      swap1\n      pop\n        /* \"#utility.yul\":4843:4914   */\n      tag_162\n        /* \"#utility.yul\":4911:4912   */\n      0x00\n        /* \"#utility.yul\":4900:4909   */\n      dup4\n        /* \"#utility.yul\":4896:4913   */\n      add\n        /* \"#utility.yul\":4887:4893   */\n      dup5\n        /* \"#utility.yul\":4843:4914   */\n      tag_151\n      jump\t// in\n    tag_162:\n        /* \"#utility.yul\":4699:4921   */\n      swap3\n      swap2\n      pop\n      pop\n      jump\t// out\n        /* \"#utility.yul\":4927:5259   */\n    tag_31:\n        /* \"#utility.yul\":5048:5052   */\n      0x00\n        /* \"#utility.yul\":5086:5088   */\n      0x40\n        /* \"#utility.yul\":5075:5084   */\n      dup3\n        /* \"#utility.yul\":5071:5089   */\n      add\n        /* \"#utility.yul\":5063:5089   */\n      swap1\n      pop\n        /* \"#utility.yul\":5099:5170   */\n      tag_164\n        /* \"#utility.yul\":5167:5168   */\n      0x00\n        /* \"#utility.yul\":5156:5165   */\n      dup4\n        /* \"#utility.yul\":5152:5169   */\n      add\n        /* \"#utility.yul\":5143:5149   */\n      dup6\n        /* \"#utility.yul\":5099:5170   */\n      tag_151\n      jump\t// in\n    tag_164:\n        /* \"#utility.yul\":5180:5252   */\n      tag_165\n        /* \"#utility.yul\":5248:5250   */\n      0x20\n        /* \"#utility.yul\":5237:5246   */\n      dup4\n        /* \"#utility.yul\":5233:5251   */\n      add\n        /* \"#utility.yul\":5224:5230   */\n      dup5\n        /* \"#utility.yul\":5180:5252   */\n      tag_131\n      jump\t// in\n    tag_165:\n        /* \"#utility.yul\":4927:5259   */\n      swap4\n      swap3\n      pop\n      pop\n      pop\n      jump\t// out\n        /* \"#utility.yul\":5265:5929   */\n    tag_26:\n        /* \"#utility.yul\":5470:5474   */\n      0x00\n        /* \"#utility.yul\":5508:5511   */\n      0xa0\n        /* \"#utility.yul\":5497:5506   */\n      dup3\n        /* \"#utility.yul\":5493:5512   */\n      add\n        /* \"#utility.yul\":5485:5512   */\n      swap1\n      pop\n        /* \"#utility.yul\":5522:5593   */\n      tag_167\n        /* \"#utility.yul\":5590:5591   */\n      0x00\n        /* \"#utility.yul\":5579:5588   */\n      dup4\n        /* \"#utility.yul\":5575:5592   */\n      add\n        /* \"#utility.yul\":5566:5572   */\n      dup9\n        /* \"#utility.yul\":5522:5593   */\n      tag_151\n      jump\t// in\n    tag_167:\n        /* \"#utility.yul\":5603:5675   */\n      tag_168\n        /* \"#utility.yul\":5671:5673   */\n      0x20\n        /* \"#utility.yul\":5660:5669   */\n      dup4\n        /* \"#utility.yul\":5656:5674   */\n      add\n        /* \"#utility.yul\":5647:5653   */\n      dup8\n        /* \"#utility.yul\":5603:5675   */\n      tag_131\n      jump\t// in\n    tag_168:\n        /* \"#utility.yul\":5685:5757   */\n      tag_169\n        /* \"#utility.yul\":5753:5755   */\n      0x40\n        /* \"#utility.yul\":5742:5751   */\n      dup4\n        /* \"#utility.yul\":5738:5756   */\n      add\n        /* \"#utility.yul\":5729:5735   */\n      dup7\n        /* \"#utility.yul\":5685:5757   */\n      tag_151\n      jump\t// in\n    tag_169:\n        /* \"#utility.yul\":5767:5839   */\n      tag_170\n        /* \"#utility.yul\":5835:5837   */\n      0x60\n        /* \"#utility.yul\":5824:5833   */\n      dup4\n        /* \"#utility.yul\":5820:5838   */\n      add\n        /* \"#utility.yul\":5811:5817   */\n      dup6\n        /* \"#utility.yul\":5767:5839   */\n      tag_151\n      jump\t// in\n    tag_170:\n        /* \"#utility.yul\":5849:5922   */\n      tag_171\n        /* \"#utility.yul\":5917:5920   */\n      0x80\n        /* \"#utility.yul\":5906:5915   */\n      dup4\n        /* \"#utility.yul\":5902:5921   */\n      add\n        /* \"#utility.yul\":5893:5899   */\n      dup5\n        /* \"#utility.yul\":5849:5922   */\n      tag_131\n      jump\t// in\n    tag_171:\n        /* \"#utility.yul\":5265:5929   */\n      swap7\n      swap6\n      pop\n      pop\n      pop\n      pop\n      pop\n      pop\n      jump\t// out\n        /* \"#utility.yul\":6016:6185   */\n    tag_138:\n        /* \"#utility.yul\":6100:6111   */\n      0x00\n        /* \"#utility.yul\":6134:6140   */\n      dup3\n        /* \"#utility.yul\":6129:6132   */\n      dup3\n        /* \"#utility.yul\":6122:6141   */\n      mstore\n        /* \"#utility.yul\":6174:6178   */\n      0x20\n        /* \"#utility.yul\":6169:6172   */\n      dup3\n        /* \"#utility.yul\":6165:6179   */\n      add\n        /* \"#utility.yul\":6150:6179   */\n      swap1\n      pop\n        /* \"#utility.yul\":6016:6185   */\n      swap3\n      swap2\n      pop\n      pop\n      jump\t// out\n        /* \"#utility.yul\":6191:6281   */\n    tag_175:\n        /* \"#utility.yul\":6225:6232   */\n      0x00\n        /* \"#utility.yul\":6268:6273   */\n      dup2\n        /* \"#utility.yul\":6261:6274   */\n      iszero\n        /* \"#utility.yul\":6254:6275   */\n      iszero\n        /* \"#utility.yul\":6243:6275   */\n      swap1\n      pop\n        /* \"#utility.yul\":6191:6281   */\n      swap2\n      swap1\n      pop\n      jump\t// out\n        /* \"#utility.yul\":6287:6364   */\n    tag_134:\n        /* \"#utility.yul\":6324:6331   */\n      0x00\n        /* \"#utility.yul\":6353:6358   */\n      dup2\n        /* \"#utility.yul\":6342:6358   */\n      swap1\n      pop\n        /* \"#utility.yul\":6287:6364   */\n      swap2\n      swap1\n      pop\n      jump\t// out\n        /* \"#utility.yul\":6370:6447   */\n    tag_154:\n        /* \"#utility.yul\":6407:6414   */\n      0x00\n        /* \"#utility.yul\":6436:6441   */\n      dup2\n        /* \"#utility.yul\":6425:6441   */\n      swap1\n      pop\n        /* \"#utility.yul\":6370:6447   */\n      swap2\n      swap1\n      pop\n      jump\t// out\n        /* \"#utility.yul\":6453:6686   */\n    tag_73:\n        /* \"#utility.yul\":6492:6495   */\n      0x00\n        /* \"#utility.yul\":6515:6539   */\n      tag_180\n        /* \"#utility.yul\":6533:6538   */\n      dup3\n        /* \"#utility.yul\":6515:6539   */\n      tag_154\n      jump\t// in\n    tag_180:\n        /* \"#utility.yul\":6506:6539   */\n      swap2\n      pop\n        /* \"#utility.yul\":6561:6627   */\n      0xffffffffffffffffffffffffffffffffffffffffffffffffffffffffffffffff\n        /* \"#utility.yul\":6554:6559   */\n      dup3\n        /* \"#utility.yul\":6551:6628   */\n      eq\n        /* \"#utility.yul\":6548:6651   */\n      iszero\n      tag_181\n      jumpi\n        /* \"#utility.yul\":6631:6649   */\n      tag_182\n      tag_183\n      jump\t// in\n    tag_182:\n        /* \"#utility.yul\":6548:6651   */\n    tag_181:\n        /* \"#utility.yul\":6678:6679   */\n      0x01\n        /* \"#utility.yul\":6671:6676   */\n      dup3\n        /* \"#utility.yul\":6667:6680   */\n      add\n        /* \"#utility.yul\":6660:6680   */\n      swap1\n      pop\n        /* \"#utility.yul\":6453:6686   */\n      swap2\n      swap1\n      pop\n      jump\t// out\n        /* \"#utility.yul\":6692:6872   */\n    tag_183:\n        /* \"#utility.yul\":6740:6817   */\n      0x4e487b7100000000000000000000000000000000000000000000000000000000\n        /* \"#utility.yul\":6737:6738   */\n      0x00\n        /* \"#utility.yul\":6730:6818   */\n      mstore\n        /* \"#utility.yul\":6837:6841   */\n      0x11\n        /* \"#utility.yul\":6834:6835   */\n      0x04\n        /* \"#utility.yul\":6827:6842   */\n      mstore\n        /* \"#utility.yul\":6861:6865   */\n      0x24\n        /* \"#utility.yul\":6858:6859   */\n      0x00\n        /* \"#utility.yul\":6851:6866   */\n      revert\n        /* \"#utility.yul\":7001:7118   */\n    tag_115:\n        /* \"#utility.yul\":7110:7111   */\n      0x00\n        /* \"#utility.yul\":7107:7108   */\n      dup1\n        /* \"#utility.yul\":7100:7112   */\n      revert\n        /* \"#utility.yul\":7124:7359   */\n    tag_140:\n        /* \"#utility.yul\":7264:7298   */\n      0x5468652063616e64696461746520796f752061726520766f74696e6720666f72\n        /* \"#utility.yul\":7260:7261   */\n      0x00\n        /* \"#utility.yul\":7252:7258   */\n      dup3\n        /* \"#utility.yul\":7248:7262   */\n      add\n        /* \"#utility.yul\":7241:7299   */\n      mstore\n        /* \"#utility.yul\":7333:7351   */\n      0x20646f6573206e6f742065786973742e00000000000000000000000000000000\n        /* \"#utility.yul\":7328:7330   */\n      0x20\n        /* \"#utility.yul\":7320:7326   */\n      dup3\n        /* \"#utility.yul\":7316:7331   */\n      add\n        /* \"#utility.yul\":7309:7352   */\n      mstore\n        /* \"#utility.yul\":7124:7359   */\n      pop\n      jump\t// out\n        /* \"#utility.yul\":7365:7602   */\n    tag_145:\n        /* \"#utility.yul\":7505:7539   */\n      0x596f757220766f746520666f72207468697320706f73742068617320616c7265\n        /* \"#utility.yul\":7501:7502   */\n      0x00\n        /* \"#utility.yul\":7493:7499   */\n      dup3\n        /* \"#utility.yul\":7489:7503   */\n      add\n        /* \"#utility.yul\":7482:7540   */\n      mstore\n        /* \"#utility.yul\":7574:7594   */\n      0x616479206265656e207265636f726465642e0000000000000000000000000000\n        /* \"#utility.yul\":7569:7571   */\n      0x20\n        /* \"#utility.yul\":7561:7567   */\n      dup3\n        /* \"#utility.yul\":7557:7572   */\n      add\n        /* \"#utility.yul\":7550:7595   */\n      mstore\n        /* \"#utility.yul\":7365:7602   */\n      pop\n      jump\t// out\n        /* \"#utility.yul\":7608:7839   */\n    tag_150:\n        /* \"#utility.yul\":7748:7782   */\n      0x566f746520666f722063757272656e7420706f7374207375636365737366756c\n        /* \"#utility.yul\":7744:7745   */\n      0x00\n        /* \"#utility.yul\":7736:7742   */\n      dup3\n        /* \"#utility.yul\":7732:7746   */\n      add\n        /* \"#utility.yul\":7725:7783   */\n      mstore\n        /* \"#utility.yul\":7817:7831   */\n      0x6c79207265636f726465642e0000000000000000000000000000000000000000\n        /* \"#utility.yul\":7812:7814   */\n      0x20\n        /* \"#utility.yul\":7804:7810   */\n      dup3\n        /* \"#utility.yul\":7800:7815   */\n      add\n        /* \"#utility.yul\":7793:7832   */\n      mstore\n        /* \"#utility.yul\":7608:7839   */\n      pop\n      jump\t// out\n        /* \"#utility.yul\":7845:7961   */\n    tag_103:\n        /* \"#utility.yul\":7915:7936   */\n      tag_192\n        /* \"#utility.yul\":7930:7935   */\n      dup2\n        /* \"#utility.yul\":7915:7936   */\n      tag_175\n      jump\t// in\n    tag_192:\n        /* \"#utility.yul\":7908:7913   */\n      dup2\n        /* \"#utility.yul\":7905:7937   */\n      eq\n        /* \"#utility.yul\":7895:7955   */\n      tag_193\n      jumpi\n        /* \"#utility.yul\":7951:7952   */\n      0x00\n        /* \"#utility.yul\":7948:7949   */\n      dup1\n        /* \"#utility.yul\":7941:7953   */\n      revert\n        /* \"#utility.yul\":7895:7955   */\n    tag_193:\n        /* \"#utility.yul\":7845:7961   */\n      pop\n      jump\t// out\n        /* \"#utility.yul\":7967:8089   */\n    tag_107:\n        /* \"#utility.yul\":8040:8064   */\n      tag_195\n        /* \"#utility.yul\":8058:8063   */\n      dup2\n        /* \"#utility.yul\":8040:8064   */\n      tag_134\n      jump\t// in\n    tag_195:\n        /* \"#utility.yul\":8033:8038   */\n      dup2\n        /* \"#utility.yul\":8030:8065   */\n      eq\n        /* \"#utility.yul\":8020:8083   */\n      tag_196\n      jumpi\n        /* \"#utility.yul\":8079:8080   */\n      0x00\n        /* \"#utility.yul\":8076:8077   */\n      dup1\n        /* \"#utility.yul\":8069:8081   */\n      revert\n        /* \"#utility.yul\":8020:8083   */\n    tag_196:\n        /* \"#utility.yul\":7967:8089   */\n      pop\n      jump\t// out\n        /* \"#utility.yul\":8095:8217   */\n    tag_111:\n        /* \"#utility.yul\":8168:8192   */\n      tag_198\n        /* \"#utility.yul\":8186:8191   */\n      dup2\n        /* \"#utility.yul\":8168:8192   */\n      tag_154\n      jump\t// in\n    tag_198:\n        /* \"#utility.yul\":8161:8166   */\n      dup2\n        /* \"#utility.yul\":8158:8193   */\n      eq\n        /* \"#utility.yul\":8148:8211   */\n      tag_199\n      jumpi\n        /* \"#utility.yul\":8207:8208   */\n      0x00\n        /* \"#utility.yul\":8204:8205   */\n      dup1\n        /* \"#utility.yul\":8197:8209   */\n      revert\n        /* \"#utility.yul\":8148:8211   */\n    tag_199:\n        /* \"#utility.yul\":8095:8217   */\n      pop\n      jump\t// out\n\n    auxdata: 0xa2646970667358221220bfa0a4291078c5e04f39bcd0515ad4bc30164e2803e44c6df9eea2c4c24a054c64736f6c63430008070033\n}\n",
				"bytecode": {
					"linkReferences": {},
					"object": "608060405234801561001057600080fd5b50336000806101000a81548173ffffffffffffffffffffffffffffffffffffffff021916908373ffffffffffffffffffffffffffffffffffffffff160217905550610c99806100606000396000f3fe608060405234801561001057600080fd5b50600436106100b45760003560e01c80639ef1204c116100715780639ef1204c146101a4578063b6a90065146101c0578063c697daee146101dc578063e02adad2146101fa578063e8685ba114610216578063f5749a8f14610234576100b4565b80632ce35e11146100b957806335b8e820146100e957806340731c241461011d57806365fc783c1461014e5780637d75a4381461016c57806388827c1614610188575b600080fd5b6100d360048036038101906100ce91906108d8565b610250565b6040516100e091906109ec565b60405180910390f35b61010360048036038101906100fe91906108d8565b610270565b604051610114959493929190610a30565b60405180910390f35b610137600480360381019061013291906108d8565b6102fb565b604051610145929190610a07565b60405180910390f35b61015661031c565b60405161016391906109ec565b60405180910390f35b610186600480360381019061018191906108d8565b610326565b005b6101a2600480360381019061019d919061082b565b6103b0565b005b6101be60048036038101906101b99190610898565b61043f565b005b6101da60048036038101906101d591906108d8565b61062c565b005b6101e46106b6565b6040516101f191906109ec565b60405180910390f35b610214600480360381019061020f9190610858565b6106c0565b005b61021e610719565b60405161022b91906109ec565b60405180910390f35b61024e60048036038101906102499190610898565b610723565b005b600060046000838152602001908152602001600020600101549050919050565b60008060008060008560046000888152602001908152602001600020600001546004600089815260200190815260200160002060010154600460008a81526020019081526020016000206002015460066000600460008d8152602001908152602001600020600201548152602001908152602001600020549450945094509450945091939590929450565b60008082600660008581526020019081526020016000205491509150915091565b6000600254905090565b60008054906101000a900473ffffffffffffffffffffffffffffffffffffffff1673ffffffffffffffffffffffffffffffffffffffff163373ffffffffffffffffffffffffffffffffffffffff161461037e57600080fd5b60016004600083815260200190815260200160002060030160006101000a81548160ff02191690831515021790555050565b60008054906101000a900473ffffffffffffffffffffffffffffffffffffffff1673ffffffffffffffffffffffffffffffffffffffff163373ffffffffffffffffffffffffffffffffffffffff161461040857600080fd5b60006003600081548092919061041d90610ab4565b9190505590508160066000838152602001908152602001600020819055505050565b600115156004600083815260200190815260200160002060030160009054906101000a900460ff16151514156105f257600015156005600084815260200190815260200160002060010160009054906101000a900460ff16151514156104ab576104aa8260016106c0565b5b6005600083815260200190815260200160002060020160006004600084815260200190815260200160002060020154815260200190815260200160002060009054906101000a900460ff1615610535577fba6ae3dbd1f39a6286aa8cb6d47d3e2e1aa302819730506f57e9aeb76ad03997604051610528906109ac565b60405180910390a16105ed565b60016005600084815260200190815260200160002060020160006004600085815260200190815260200160002060020154815260200190815260200160002060006101000a81548160ff0219169083151502179055506004600082815260200190815260200160002060010160008154809291906105b290610ab4565b91905055507fba6ae3dbd1f39a6286aa8cb6d47d3e2e1aa302819730506f57e9aeb76ad039976040516105e4906109cc565b60405180910390a15b610628565b7fba6ae3dbd1f39a6286aa8cb6d47d3e2e1aa302819730506f57e9aeb76ad0399760405161061f9061098c565b60405180910390a15b5050565b60008054906101000a900473ffffffffffffffffffffffffffffffffffffffff1673ffffffffffffffffffffffffffffffffffffffff163373ffffffffffffffffffffffffffffffffffffffff161461068457600080fd5b60006004600083815260200190815260200160002060030160006101000a81548160ff02191690831515021790555050565b6000600354905090565b6000600560008481526020019081526020016000209050828160000181905550818160010160006101000a81548160ff0219169083151502179055506002600081548092919061070f90610ab4565b9190505550505050565b6000600154905090565b60008054906101000a900473ffffffffffffffffffffffffffffffffffffffff1673ffffffffffffffffffffffffffffffffffffffff163373ffffffffffffffffffffffffffffffffffffffff161461077b57600080fd5b60006001600081548092919061079090610ab4565b91905055905060006004600083815260200190815260200160002090508381600001819055506000816001018190555082816002018190555060018160030160006101000a81548160ff02191690831515021790555050505050565b6000813590506107fb81610c1e565b92915050565b60008135905061081081610c35565b92915050565b60008135905061082581610c4c565b92915050565b60006020828403121561084157610840610b2c565b5b600061084f84828501610801565b91505092915050565b6000806040838503121561086f5761086e610b2c565b5b600061087d85828601610801565b925050602061088e858286016107ec565b9150509250929050565b600080604083850312156108af576108ae610b2c565b5b60006108bd85828601610801565b92505060206108ce85828601610816565b9150509250929050565b6000602082840312156108ee576108ed610b2c565b5b60006108fc84828501610816565b91505092915050565b61090e81610aa0565b82525050565b6000610921603083610a83565b915061092c82610b31565b604082019050919050565b6000610944603283610a83565b915061094f82610b80565b604082019050919050565b6000610967602c83610a83565b915061097282610bcf565b604082019050919050565b61098681610aaa565b82525050565b600060208201905081810360008301526109a581610914565b9050919050565b600060208201905081810360008301526109c581610937565b9050919050565b600060208201905081810360008301526109e58161095a565b9050919050565b6000602082019050610a01600083018461097d565b92915050565b6000604082019050610a1c600083018561097d565b610a296020830184610905565b9392505050565b600060a082019050610a45600083018861097d565b610a526020830187610905565b610a5f604083018661097d565b610a6c606083018561097d565b610a796080830184610905565b9695505050505050565b600082825260208201905092915050565b60008115159050919050565b6000819050919050565b6000819050919050565b6000610abf82610aaa565b91507fffffffffffffffffffffffffffffffffffffffffffffffffffffffffffffffff821415610af257610af1610afd565b5b600182019050919050565b7f4e487b7100000000000000000000000000000000000000000000000000000000600052601160045260246000fd5b600080fd5b7f5468652063616e64696461746520796f752061726520766f74696e6720666f7260008201527f20646f6573206e6f742065786973742e00000000000000000000000000000000602082015250565b7f596f757220766f746520666f72207468697320706f73742068617320616c726560008201527f616479206265656e207265636f726465642e0000000000000000000000000000602082015250565b7f566f746520666f722063757272656e7420706f7374207375636365737366756c60008201527f6c79207265636f726465642e0000000000000000000000000000000000000000602082015250565b610c2781610a94565b8114610c3257600080fd5b50565b610c3e81610aa0565b8114610c4957600080fd5b50565b610c5581610aaa565b8114610c6057600080fd5b5056fea2646970667358221220bfa0a4291078c5e04f39bcd0515ad4bc30164e2803e44c6df9eea2c4c24a054c64736f6c63430008070033",
					"opcodes": "PUSH1 0x80 PUSH1 0x40 MSTORE CALLVALUE DUP1 ISZERO PUSH2 0x10 JUMPI PUSH1 0x0 DUP1 REVERT JUMPDEST POP CALLER PUSH1 0x0 DUP1 PUSH2 0x100 EXP DUP2 SLOAD DUP2 PUSH20 0xFFFFFFFFFFFFFFFFFFFFFFFFFFFFFFFFFFFFFFFF MUL NOT AND SWAP1 DUP4 PUSH20 0xFFFFFFFFFFFFFFFFFFFFFFFFFFFFFFFFFFFFFFFF AND MUL OR SWAP1 SSTORE POP PUSH2 0xC99 DUP1 PUSH2 0x60 PUSH1 0x0 CODECOPY PUSH1 0x0 RETURN INVALID PUSH1 0x80 PUSH1 0x40 MSTORE CALLVALUE DUP1 ISZERO PUSH2 0x10 JUMPI PUSH1 0x0 DUP1 REVERT JUMPDEST POP PUSH1 0x4 CALLDATASIZE LT PUSH2 0xB4 JUMPI PUSH1 0x0 CALLDATALOAD PUSH1 0xE0 SHR DUP1 PUSH4 0x9EF1204C GT PUSH2 0x71 JUMPI DUP1 PUSH4 0x9EF1204C EQ PUSH2 0x1A4 JUMPI DUP1 PUSH4 0xB6A90065 EQ PUSH2 0x1C0 JUMPI DUP1 PUSH4 0xC697DAEE EQ PUSH2 0x1DC JUMPI DUP1 PUSH4 0xE02ADAD2 EQ PUSH2 0x1FA JUMPI DUP1 PUSH4 0xE8685BA1 EQ PUSH2 0x216 JUMPI DUP1 PUSH4 0xF5749A8F EQ PUSH2 0x234 JUMPI PUSH2 0xB4 JUMP JUMPDEST DUP1 PUSH4 0x2CE35E11 EQ PUSH2 0xB9 JUMPI DUP1 PUSH4 0x35B8E820 EQ PUSH2 0xE9 JUMPI DUP1 PUSH4 0x40731C24 EQ PUSH2 0x11D JUMPI DUP1 PUSH4 0x65FC783C EQ PUSH2 0x14E JUMPI DUP1 PUSH4 0x7D75A438 EQ PUSH2 0x16C JUMPI DUP1 PUSH4 0x88827C16 EQ PUSH2 0x188 JUMPI JUMPDEST PUSH1 0x0 DUP1 REVERT JUMPDEST PUSH2 0xD3 PUSH1 0x4 DUP1 CALLDATASIZE SUB DUP2 ADD SWAP1 PUSH2 0xCE SWAP2 SWAP1 PUSH2 0x8D8 JUMP JUMPDEST PUSH2 0x250 JUMP JUMPDEST PUSH1 0x40 MLOAD PUSH2 0xE0 SWAP2 SWAP1 PUSH2 0x9EC JUMP JUMPDEST PUSH1 0x40 MLOAD DUP1 SWAP2 SUB SWAP1 RETURN JUMPDEST PUSH2 0x103 PUSH1 0x4 DUP1 CALLDATASIZE SUB DUP2 ADD SWAP1 PUSH2 0xFE SWAP2 SWAP1 PUSH2 0x8D8 JUMP JUMPDEST PUSH2 0x270 JUMP JUMPDEST PUSH1 0x40 MLOAD PUSH2 0x114 SWAP6 SWAP5 SWAP4 SWAP3 SWAP2 SWAP1 PUSH2 0xA30 JUMP JUMPDEST PUSH1 0x40 MLOAD DUP1 SWAP2 SUB SWAP1 RETURN JUMPDEST PUSH2 0x137 PUSH1 0x4 DUP1 CALLDATASIZE SUB DUP2 ADD SWAP1 PUSH2 0x132 SWAP2 SWAP1 PUSH2 0x8D8 JUMP JUMPDEST PUSH2 0x2FB JUMP JUMPDEST PUSH1 0x40 MLOAD PUSH2 0x145 SWAP3 SWAP2 SWAP1 PUSH2 0xA07 JUMP JUMPDEST PUSH1 0x40 MLOAD DUP1 SWAP2 SUB SWAP1 RETURN JUMPDEST PUSH2 0x156 PUSH2 0x31C JUMP JUMPDEST PUSH1 0x40 MLOAD PUSH2 0x163 SWAP2 SWAP1 PUSH2 0x9EC JUMP JUMPDEST PUSH1 0x40 MLOAD DUP1 SWAP2 SUB SWAP1 RETURN JUMPDEST PUSH2 0x186 PUSH1 0x4 DUP1 CALLDATASIZE SUB DUP2 ADD SWAP1 PUSH2 0x181 SWAP2 SWAP1 PUSH2 0x8D8 JUMP JUMPDEST PUSH2 0x326 JUMP JUMPDEST STOP JUMPDEST PUSH2 0x1A2 PUSH1 0x4 DUP1 CALLDATASIZE SUB DUP2 ADD SWAP1 PUSH2 0x19D SWAP2 SWAP1 PUSH2 0x82B JUMP JUMPDEST PUSH2 0x3B0 JUMP JUMPDEST STOP JUMPDEST PUSH2 0x1BE PUSH1 0x4 DUP1 CALLDATASIZE SUB DUP2 ADD SWAP1 PUSH2 0x1B9 SWAP2 SWAP1 PUSH2 0x898 JUMP JUMPDEST PUSH2 0x43F JUMP JUMPDEST STOP JUMPDEST PUSH2 0x1DA PUSH1 0x4 DUP1 CALLDATASIZE SUB DUP2 ADD SWAP1 PUSH2 0x1D5 SWAP2 SWAP1 PUSH2 0x8D8 JUMP JUMPDEST PUSH2 0x62C JUMP JUMPDEST STOP JUMPDEST PUSH2 0x1E4 PUSH2 0x6B6 JUMP JUMPDEST PUSH1 0x40 MLOAD PUSH2 0x1F1 SWAP2 SWAP1 PUSH2 0x9EC JUMP JUMPDEST PUSH1 0x40 MLOAD DUP1 SWAP2 SUB SWAP1 RETURN JUMPDEST PUSH2 0x214 PUSH1 0x4 DUP1 CALLDATASIZE SUB DUP2 ADD SWAP1 PUSH2 0x20F SWAP2 SWAP1 PUSH2 0x858 JUMP JUMPDEST PUSH2 0x6C0 JUMP JUMPDEST STOP JUMPDEST PUSH2 0x21E PUSH2 0x719 JUMP JUMPDEST PUSH1 0x40 MLOAD PUSH2 0x22B SWAP2 SWAP1 PUSH2 0x9EC JUMP JUMPDEST PUSH1 0x40 MLOAD DUP1 SWAP2 SUB SWAP1 RETURN JUMPDEST PUSH2 0x24E PUSH1 0x4 DUP1 CALLDATASIZE SUB DUP2 ADD SWAP1 PUSH2 0x249 SWAP2 SWAP1 PUSH2 0x898 JUMP JUMPDEST PUSH2 0x723 JUMP JUMPDEST STOP JUMPDEST PUSH1 0x0 PUSH1 0x4 PUSH1 0x0 DUP4 DUP2 MSTORE PUSH1 0x20 ADD SWAP1 DUP2 MSTORE PUSH1 0x20 ADD PUSH1 0x0 KECCAK256 PUSH1 0x1 ADD SLOAD SWAP1 POP SWAP2 SWAP1 POP JUMP JUMPDEST PUSH1 0x0 DUP1 PUSH1 0x0 DUP1 PUSH1 0x0 DUP6 PUSH1 0x4 PUSH1 0x0 DUP9 DUP2 MSTORE PUSH1 0x20 ADD SWAP1 DUP2 MSTORE PUSH1 0x20 ADD PUSH1 0x0 KECCAK256 PUSH1 0x0 ADD SLOAD PUSH1 0x4 PUSH1 0x0 DUP10 DUP2 MSTORE PUSH1 0x20 ADD SWAP1 DUP2 MSTORE PUSH1 0x20 ADD PUSH1 0x0 KECCAK256 PUSH1 0x1 ADD SLOAD PUSH1 0x4 PUSH1 0x0 DUP11 DUP2 MSTORE PUSH1 0x20 ADD SWAP1 DUP2 MSTORE PUSH1 0x20 ADD PUSH1 0x0 KECCAK256 PUSH1 0x2 ADD SLOAD PUSH1 0x6 PUSH1 0x0 PUSH1 0x4 PUSH1 0x0 DUP14 DUP2 MSTORE PUSH1 0x20 ADD SWAP1 DUP2 MSTORE PUSH1 0x20 ADD PUSH1 0x0 KECCAK256 PUSH1 0x2 ADD SLOAD DUP2 MSTORE PUSH1 0x20 ADD SWAP1 DUP2 MSTORE PUSH1 0x20 ADD PUSH1 0x0 KECCAK256 SLOAD SWAP5 POP SWAP5 POP SWAP5 POP SWAP5 POP SWAP5 POP SWAP2 SWAP4 SWAP6 SWAP1 SWAP3 SWAP5 POP JUMP JUMPDEST PUSH1 0x0 DUP1 DUP3 PUSH1 0x6 PUSH1 0x0 DUP6 DUP2 MSTORE PUSH1 0x20 ADD SWAP1 DUP2 MSTORE PUSH1 0x20 ADD PUSH1 0x0 KECCAK256 SLOAD SWAP2 POP SWAP2 POP SWAP2 POP SWAP2 JUMP JUMPDEST PUSH1 0x0 PUSH1 0x2 SLOAD SWAP1 POP SWAP1 JUMP JUMPDEST PUSH1 0x0 DUP1 SLOAD SWAP1 PUSH2 0x100 EXP SWAP1 DIV PUSH20 0xFFFFFFFFFFFFFFFFFFFFFFFFFFFFFFFFFFFFFFFF AND PUSH20 0xFFFFFFFFFFFFFFFFFFFFFFFFFFFFFFFFFFFFFFFF AND CALLER PUSH20 0xFFFFFFFFFFFFFFFFFFFFFFFFFFFFFFFFFFFFFFFF AND EQ PUSH2 0x37E JUMPI PUSH1 0x0 DUP1 REVERT JUMPDEST PUSH1 0x1 PUSH1 0x4 PUSH1 0x0 DUP4 DUP2 MSTORE PUSH1 0x20 ADD SWAP1 DUP2 MSTORE PUSH1 0x20 ADD PUSH1 0x0 KECCAK256 PUSH1 0x3 ADD PUSH1 0x0 PUSH2 0x100 EXP DUP2 SLOAD DUP2 PUSH1 0xFF MUL NOT AND SWAP1 DUP4 ISZERO ISZERO MUL OR SWAP1 SSTORE POP POP JUMP JUMPDEST PUSH1 0x0 DUP1 SLOAD SWAP1 PUSH2 0x100 EXP SWAP1 DIV PUSH20 0xFFFFFFFFFFFFFFFFFFFFFFFFFFFFFFFFFFFFFFFF AND PUSH20 0xFFFFFFFFFFFFFFFFFFFFFFFFFFFFFFFFFFFFFFFF AND CALLER PUSH20 0xFFFFFFFFFFFFFFFFFFFFFFFFFFFFFFFFFFFFFFFF AND EQ PUSH2 0x408 JUMPI PUSH1 0x0 DUP1 REVERT JUMPDEST PUSH1 0x0 PUSH1 0x3 PUSH1 0x0 DUP2 SLOAD DUP1 SWAP3 SWAP2 SWAP1 PUSH2 0x41D SWAP1 PUSH2 0xAB4 JUMP JUMPDEST SWAP2 SWAP1 POP SSTORE SWAP1 POP DUP2 PUSH1 0x6 PUSH1 0x0 DUP4 DUP2 MSTORE PUSH1 0x20 ADD SWAP1 DUP2 MSTORE PUSH1 0x20 ADD PUSH1 0x0 KECCAK256 DUP2 SWAP1 SSTORE POP POP POP JUMP JUMPDEST PUSH1 0x1 ISZERO ISZERO PUSH1 0x4 PUSH1 0x0 DUP4 DUP2 MSTORE PUSH1 0x20 ADD SWAP1 DUP2 MSTORE PUSH1 0x20 ADD PUSH1 0x0 KECCAK256 PUSH1 0x3 ADD PUSH1 0x0 SWAP1 SLOAD SWAP1 PUSH2 0x100 EXP SWAP1 DIV PUSH1 0xFF AND ISZERO ISZERO EQ ISZERO PUSH2 0x5F2 JUMPI PUSH1 0x0 ISZERO ISZERO PUSH1 0x5 PUSH1 0x0 DUP5 DUP2 MSTORE PUSH1 0x20 ADD SWAP1 DUP2 MSTORE PUSH1 0x20 ADD PUSH1 0x0 KECCAK256 PUSH1 0x1 ADD PUSH1 0x0 SWAP1 SLOAD SWAP1 PUSH2 0x100 EXP SWAP1 DIV PUSH1 0xFF AND ISZERO ISZERO EQ ISZERO PUSH2 0x4AB JUMPI PUSH2 0x4AA DUP3 PUSH1 0x1 PUSH2 0x6C0 JUMP JUMPDEST JUMPDEST PUSH1 0x5 PUSH1 0x0 DUP4 DUP2 MSTORE PUSH1 0x20 ADD SWAP1 DUP2 MSTORE PUSH1 0x20 ADD PUSH1 0x0 KECCAK256 PUSH1 0x2 ADD PUSH1 0x0 PUSH1 0x4 PUSH1 0x0 DUP5 DUP2 MSTORE PUSH1 0x20 ADD SWAP1 DUP2 MSTORE PUSH1 0x20 ADD PUSH1 0x0 KECCAK256 PUSH1 0x2 ADD SLOAD DUP2 MSTORE PUSH1 0x20 ADD SWAP1 DUP2 MSTORE PUSH1 0x20 ADD PUSH1 0x0 KECCAK256 PUSH1 0x0 SWAP1 SLOAD SWAP1 PUSH2 0x100 EXP SWAP1 DIV PUSH1 0xFF AND ISZERO PUSH2 0x535 JUMPI PUSH32 0xBA6AE3DBD1F39A6286AA8CB6D47D3E2E1AA302819730506F57E9AEB76AD03997 PUSH1 0x40 MLOAD PUSH2 0x528 SWAP1 PUSH2 0x9AC JUMP JUMPDEST PUSH1 0x40 MLOAD DUP1 SWAP2 SUB SWAP1 LOG1 PUSH2 0x5ED JUMP JUMPDEST PUSH1 0x1 PUSH1 0x5 PUSH1 0x0 DUP5 DUP2 MSTORE PUSH1 0x20 ADD SWAP1 DUP2 MSTORE PUSH1 0x20 ADD PUSH1 0x0 KECCAK256 PUSH1 0x2 ADD PUSH1 0x0 PUSH1 0x4 PUSH1 0x0 DUP6 DUP2 MSTORE PUSH1 0x20 ADD SWAP1 DUP2 MSTORE PUSH1 0x20 ADD PUSH1 0x0 KECCAK256 PUSH1 0x2 ADD SLOAD DUP2 MSTORE PUSH1 0x20 ADD SWAP1 DUP2 MSTORE PUSH1 0x20 ADD PUSH1 0x0 KECCAK256 PUSH1 0x0 PUSH2 0x100 EXP DUP2 SLOAD DUP2 PUSH1 0xFF MUL NOT AND SWAP1 DUP4 ISZERO ISZERO MUL OR SWAP1 SSTORE POP PUSH1 0x4 PUSH1 0x0 DUP3 DUP2 MSTORE PUSH1 0x20 ADD SWAP1 DUP2 MSTORE PUSH1 0x20 ADD PUSH1 0x0 KECCAK256 PUSH1 0x1 ADD PUSH1 0x0 DUP2 SLOAD DUP1 SWAP3 SWAP2 SWAP1 PUSH2 0x5B2 SWAP1 PUSH2 0xAB4 JUMP JUMPDEST SWAP2 SWAP1 POP SSTORE POP PUSH32 0xBA6AE3DBD1F39A6286AA8CB6D47D3E2E1AA302819730506F57E9AEB76AD03997 PUSH1 0x40 MLOAD PUSH2 0x5E4 SWAP1 PUSH2 0x9CC JUMP JUMPDEST PUSH1 0x40 MLOAD DUP1 SWAP2 SUB SWAP1 LOG1 JUMPDEST PUSH2 0x628 JUMP JUMPDEST PUSH32 0xBA6AE3DBD1F39A6286AA8CB6D47D3E2E1AA302819730506F57E9AEB76AD03997 PUSH1 0x40 MLOAD PUSH2 0x61F SWAP1 PUSH2 0x98C JUMP JUMPDEST PUSH1 0x40 MLOAD DUP1 SWAP2 SUB SWAP1 LOG1 JUMPDEST POP POP JUMP JUMPDEST PUSH1 0x0 DUP1 SLOAD SWAP1 PUSH2 0x100 EXP SWAP1 DIV PUSH20 0xFFFFFFFFFFFFFFFFFFFFFFFFFFFFFFFFFFFFFFFF AND PUSH20 0xFFFFFFFFFFFFFFFFFFFFFFFFFFFFFFFFFFFFFFFF AND CALLER PUSH20 0xFFFFFFFFFFFFFFFFFFFFFFFFFFFFFFFFFFFFFFFF AND EQ PUSH2 0x684 JUMPI PUSH1 0x0 DUP1 REVERT JUMPDEST PUSH1 0x0 PUSH1 0x4 PUSH1 0x0 DUP4 DUP2 MSTORE PUSH1 0x20 ADD SWAP1 DUP2 MSTORE PUSH1 0x20 ADD PUSH1 0x0 KECCAK256 PUSH1 0x3 ADD PUSH1 0x0 PUSH2 0x100 EXP DUP2 SLOAD DUP2 PUSH1 0xFF MUL NOT AND SWAP1 DUP4 ISZERO ISZERO MUL OR SWAP1 SSTORE POP POP JUMP JUMPDEST PUSH1 0x0 PUSH1 0x3 SLOAD SWAP1 POP SWAP1 JUMP JUMPDEST PUSH1 0x0 PUSH1 0x5 PUSH1 0x0 DUP5 DUP2 MSTORE PUSH1 0x20 ADD SWAP1 DUP2 MSTORE PUSH1 0x20 ADD PUSH1 0x0 KECCAK256 SWAP1 POP DUP3 DUP2 PUSH1 0x0 ADD DUP2 SWAP1 SSTORE POP DUP2 DUP2 PUSH1 0x1 ADD PUSH1 0x0 PUSH2 0x100 EXP DUP2 SLOAD DUP2 PUSH1 0xFF MUL NOT AND SWAP1 DUP4 ISZERO ISZERO MUL OR SWAP1 SSTORE POP PUSH1 0x2 PUSH1 0x0 DUP2 SLOAD DUP1 SWAP3 SWAP2 SWAP1 PUSH2 0x70F SWAP1 PUSH2 0xAB4 JUMP JUMPDEST SWAP2 SWAP1 POP SSTORE POP POP POP POP JUMP JUMPDEST PUSH1 0x0 PUSH1 0x1 SLOAD SWAP1 POP SWAP1 JUMP JUMPDEST PUSH1 0x0 DUP1 SLOAD SWAP1 PUSH2 0x100 EXP SWAP1 DIV PUSH20 0xFFFFFFFFFFFFFFFFFFFFFFFFFFFFFFFFFFFFFFFF AND PUSH20 0xFFFFFFFFFFFFFFFFFFFFFFFFFFFFFFFFFFFFFFFF AND CALLER PUSH20 0xFFFFFFFFFFFFFFFFFFFFFFFFFFFFFFFFFFFFFFFF AND EQ PUSH2 0x77B JUMPI PUSH1 0x0 DUP1 REVERT JUMPDEST PUSH1 0x0 PUSH1 0x1 PUSH1 0x0 DUP2 SLOAD DUP1 SWAP3 SWAP2 SWAP1 PUSH2 0x790 SWAP1 PUSH2 0xAB4 JUMP JUMPDEST SWAP2 SWAP1 POP SSTORE SWAP1 POP PUSH1 0x0 PUSH1 0x4 PUSH1 0x0 DUP4 DUP2 MSTORE PUSH1 0x20 ADD SWAP1 DUP2 MSTORE PUSH1 0x20 ADD PUSH1 0x0 KECCAK256 SWAP1 POP DUP4 DUP2 PUSH1 0x0 ADD DUP2 SWAP1 SSTORE POP PUSH1 0x0 DUP2 PUSH1 0x1 ADD DUP2 SWAP1 SSTORE POP DUP3 DUP2 PUSH1 0x2 ADD DUP2 SWAP1 SSTORE POP PUSH1 0x1 DUP2 PUSH1 0x3 ADD PUSH1 0x0 PUSH2 0x100 EXP DUP2 SLOAD DUP2 PUSH1 0xFF MUL NOT AND SWAP1 DUP4 ISZERO ISZERO MUL OR SWAP1 SSTORE POP POP POP POP POP JUMP JUMPDEST PUSH1 0x0 DUP2 CALLDATALOAD SWAP1 POP PUSH2 0x7FB DUP2 PUSH2 0xC1E JUMP JUMPDEST SWAP3 SWAP2 POP POP JUMP JUMPDEST PUSH1 0x0 DUP2 CALLDATALOAD SWAP1 POP PUSH2 0x810 DUP2 PUSH2 0xC35 JUMP JUMPDEST SWAP3 SWAP2 POP POP JUMP JUMPDEST PUSH1 0x0 DUP2 CALLDATALOAD SWAP1 POP PUSH2 0x825 DUP2 PUSH2 0xC4C JUMP JUMPDEST SWAP3 SWAP2 POP POP JUMP JUMPDEST PUSH1 0x0 PUSH1 0x20 DUP3 DUP5 SUB SLT ISZERO PUSH2 0x841 JUMPI PUSH2 0x840 PUSH2 0xB2C JUMP JUMPDEST JUMPDEST PUSH1 0x0 PUSH2 0x84F DUP5 DUP3 DUP6 ADD PUSH2 0x801 JUMP JUMPDEST SWAP2 POP POP SWAP3 SWAP2 POP POP JUMP JUMPDEST PUSH1 0x0 DUP1 PUSH1 0x40 DUP4 DUP6 SUB SLT ISZERO PUSH2 0x86F JUMPI PUSH2 0x86E PUSH2 0xB2C JUMP JUMPDEST JUMPDEST PUSH1 0x0 PUSH2 0x87D DUP6 DUP3 DUP7 ADD PUSH2 0x801 JUMP JUMPDEST SWAP3 POP POP PUSH1 0x20 PUSH2 0x88E DUP6 DUP3 DUP7 ADD PUSH2 0x7EC JUMP JUMPDEST SWAP2 POP POP SWAP3 POP SWAP3 SWAP1 POP JUMP JUMPDEST PUSH1 0x0 DUP1 PUSH1 0x40 DUP4 DUP6 SUB SLT ISZERO PUSH2 0x8AF JUMPI PUSH2 0x8AE PUSH2 0xB2C JUMP JUMPDEST JUMPDEST PUSH1 0x0 PUSH2 0x8BD DUP6 DUP3 DUP7 ADD PUSH2 0x801 JUMP JUMPDEST SWAP3 POP POP PUSH1 0x20 PUSH2 0x8CE DUP6 DUP3 DUP7 ADD PUSH2 0x816 JUMP JUMPDEST SWAP2 POP POP SWAP3 POP SWAP3 SWAP1 POP JUMP JUMPDEST PUSH1 0x0 PUSH1 0x20 DUP3 DUP5 SUB SLT ISZERO PUSH2 0x8EE JUMPI PUSH2 0x8ED PUSH2 0xB2C JUMP JUMPDEST JUMPDEST PUSH1 0x0 PUSH2 0x8FC DUP5 DUP3 DUP6 ADD PUSH2 0x816 JUMP JUMPDEST SWAP2 POP POP SWAP3 SWAP2 POP POP JUMP JUMPDEST PUSH2 0x90E DUP2 PUSH2 0xAA0 JUMP JUMPDEST DUP3 MSTORE POP POP JUMP JUMPDEST PUSH1 0x0 PUSH2 0x921 PUSH1 0x30 DUP4 PUSH2 0xA83 JUMP JUMPDEST SWAP2 POP PUSH2 0x92C DUP3 PUSH2 0xB31 JUMP JUMPDEST PUSH1 0x40 DUP3 ADD SWAP1 POP SWAP2 SWAP1 POP JUMP JUMPDEST PUSH1 0x0 PUSH2 0x944 PUSH1 0x32 DUP4 PUSH2 0xA83 JUMP JUMPDEST SWAP2 POP PUSH2 0x94F DUP3 PUSH2 0xB80 JUMP JUMPDEST PUSH1 0x40 DUP3 ADD SWAP1 POP SWAP2 SWAP1 POP JUMP JUMPDEST PUSH1 0x0 PUSH2 0x967 PUSH1 0x2C DUP4 PUSH2 0xA83 JUMP JUMPDEST SWAP2 POP PUSH2 0x972 DUP3 PUSH2 0xBCF JUMP JUMPDEST PUSH1 0x40 DUP3 ADD SWAP1 POP SWAP2 SWAP1 POP JUMP JUMPDEST PUSH2 0x986 DUP2 PUSH2 0xAAA JUMP JUMPDEST DUP3 MSTORE POP POP JUMP JUMPDEST PUSH1 0x0 PUSH1 0x20 DUP3 ADD SWAP1 POP DUP2 DUP2 SUB PUSH1 0x0 DUP4 ADD MSTORE PUSH2 0x9A5 DUP2 PUSH2 0x914 JUMP JUMPDEST SWAP1 POP SWAP2 SWAP1 POP JUMP JUMPDEST PUSH1 0x0 PUSH1 0x20 DUP3 ADD SWAP1 POP DUP2 DUP2 SUB PUSH1 0x0 DUP4 ADD MSTORE PUSH2 0x9C5 DUP2 PUSH2 0x937 JUMP JUMPDEST SWAP1 POP SWAP2 SWAP1 POP JUMP JUMPDEST PUSH1 0x0 PUSH1 0x20 DUP3 ADD SWAP1 POP DUP2 DUP2 SUB PUSH1 0x0 DUP4 ADD MSTORE PUSH2 0x9E5 DUP2 PUSH2 0x95A JUMP JUMPDEST SWAP1 POP SWAP2 SWAP1 POP JUMP JUMPDEST PUSH1 0x0 PUSH1 0x20 DUP3 ADD SWAP1 POP PUSH2 0xA01 PUSH1 0x0 DUP4 ADD DUP5 PUSH2 0x97D JUMP JUMPDEST SWAP3 SWAP2 POP POP JUMP JUMPDEST PUSH1 0x0 PUSH1 0x40 DUP3 ADD SWAP1 POP PUSH2 0xA1C PUSH1 0x0 DUP4 ADD DUP6 PUSH2 0x97D JUMP JUMPDEST PUSH2 0xA29 PUSH1 0x20 DUP4 ADD DUP5 PUSH2 0x905 JUMP JUMPDEST SWAP4 SWAP3 POP POP POP JUMP JUMPDEST PUSH1 0x0 PUSH1 0xA0 DUP3 ADD SWAP1 POP PUSH2 0xA45 PUSH1 0x0 DUP4 ADD DUP9 PUSH2 0x97D JUMP JUMPDEST PUSH2 0xA52 PUSH1 0x20 DUP4 ADD DUP8 PUSH2 0x905 JUMP JUMPDEST PUSH2 0xA5F PUSH1 0x40 DUP4 ADD DUP7 PUSH2 0x97D JUMP JUMPDEST PUSH2 0xA6C PUSH1 0x60 DUP4 ADD DUP6 PUSH2 0x97D JUMP JUMPDEST PUSH2 0xA79 PUSH1 0x80 DUP4 ADD DUP5 PUSH2 0x905 JUMP JUMPDEST SWAP7 SWAP6 POP POP POP POP POP POP JUMP JUMPDEST PUSH1 0x0 DUP3 DUP3 MSTORE PUSH1 0x20 DUP3 ADD SWAP1 POP SWAP3 SWAP2 POP POP JUMP JUMPDEST PUSH1 0x0 DUP2 ISZERO ISZERO SWAP1 POP SWAP2 SWAP1 POP JUMP JUMPDEST PUSH1 0x0 DUP2 SWAP1 POP SWAP2 SWAP1 POP JUMP JUMPDEST PUSH1 0x0 DUP2 SWAP1 POP SWAP2 SWAP1 POP JUMP JUMPDEST PUSH1 0x0 PUSH2 0xABF DUP3 PUSH2 0xAAA JUMP JUMPDEST SWAP2 POP PUSH32 0xFFFFFFFFFFFFFFFFFFFFFFFFFFFFFFFFFFFFFFFFFFFFFFFFFFFFFFFFFFFFFFFF DUP3 EQ ISZERO PUSH2 0xAF2 JUMPI PUSH2 0xAF1 PUSH2 0xAFD JUMP JUMPDEST JUMPDEST PUSH1 0x1 DUP3 ADD SWAP1 POP SWAP2 SWAP1 POP JUMP JUMPDEST PUSH32 0x4E487B7100000000000000000000000000000000000000000000000000000000 PUSH1 0x0 MSTORE PUSH1 0x11 PUSH1 0x4 MSTORE PUSH1 0x24 PUSH1 0x0 REVERT JUMPDEST PUSH1 0x0 DUP1 REVERT JUMPDEST PUSH32 0x5468652063616E64696461746520796F752061726520766F74696E6720666F72 PUSH1 0x0 DUP3 ADD MSTORE PUSH32 0x20646F6573206E6F742065786973742E00000000000000000000000000000000 PUSH1 0x20 DUP3 ADD MSTORE POP JUMP JUMPDEST PUSH32 0x596F757220766F746520666F72207468697320706F73742068617320616C7265 PUSH1 0x0 DUP3 ADD MSTORE PUSH32 0x616479206265656E207265636F726465642E0000000000000000000000000000 PUSH1 0x20 DUP3 ADD MSTORE POP JUMP JUMPDEST PUSH32 0x566F746520666F722063757272656E7420706F7374207375636365737366756C PUSH1 0x0 DUP3 ADD MSTORE PUSH32 0x6C79207265636F726465642E0000000000000000000000000000000000000000 PUSH1 0x20 DUP3 ADD MSTORE POP JUMP JUMPDEST PUSH2 0xC27 DUP2 PUSH2 0xA94 JUMP JUMPDEST DUP2 EQ PUSH2 0xC32 JUMPI PUSH1 0x0 DUP1 REVERT JUMPDEST POP JUMP JUMPDEST PUSH2 0xC3E DUP2 PUSH2 0xAA0 JUMP JUMPDEST DUP2 EQ PUSH2 0xC49 JUMPI PUSH1 0x0 DUP1 REVERT JUMPDEST POP JUMP JUMPDEST PUSH2 0xC55 DUP2 PUSH2 0xAAA JUMP JUMPDEST DUP2 EQ PUSH2 0xC60 JUMPI PUSH1 0x0 DUP1 REVERT JUMPDEST POP JUMP INVALID LOG2 PUSH5 0x6970667358 0x22 SLT KECCAK256 0xBF LOG0 LOG4 0x29 LT PUSH25 0xC5E04F39BCD0515AD4BC30164E2803E44C6DF9EEA2C4C24A05 0x4C PUSH5 0x736F6C6343 STOP ADDMOD SMOD STOP CALLER "
				},
				"gasEstimates": {
					"creation": {
						"codeDepositCost": "645000",
						"executionCost": "24942",
						"totalCost": "669942"
					},
					"external": {
						"addPost(bytes32)": "49244",
						"createCandidate(bytes32,uint256)": "infinite",
						"createVoter(bytes32,bool)": "71495",
						"dropCandidate(uint256)": "26946",
						"enableCandidate(uint256)": "27013",
						"getCandidate(uint256)": "infinite",
						"getNumOfCandidates()": "2525",
						"getNumOfPosts()": "2481",
						"getNumOfVoters()": "2504",
						"getPost(uint256)": "infinite",
						"getTotalVotes(uint256)": "infinite",
						"vote(bytes32,uint256)": "infinite"
					}
				},
				"methodIdentifiers": {
					"addPost(bytes32)": "88827c16",
					"createCandidate(bytes32,uint256)": "f5749a8f",
					"createVoter(bytes32,bool)": "e02adad2",
					"dropCandidate(uint256)": "b6a90065",
					"enableCandidate(uint256)": "7d75a438",
					"getCandidate(uint256)": "35b8e820",
					"getNumOfCandidates()": "e8685ba1",
					"getNumOfPosts()": "c697daee",
					"getNumOfVoters()": "65fc783c",
					"getPost(uint256)": "40731c24",
					"getTotalVotes(uint256)": "2ce35e11",
					"vote(bytes32,uint256)": "9ef1204c"
				}
			},
			"storageLayout": {
				"storage": [
					{
						"astId": 7,
						"contract": "contracts/Voting.sol:Voting",
						"label": "owner",
						"offset": 0,
						"slot": "0",
						"type": "t_address"
					},
					{
						"astId": 47,
						"contract": "contracts/Voting.sol:Voting",
						"label": "numCandidates",
						"offset": 0,
						"slot": "1",
						"type": "t_uint256"
					},
					{
						"astId": 49,
						"contract": "contracts/Voting.sol:Voting",
						"label": "numVoters",
						"offset": 0,
						"slot": "2",
						"type": "t_uint256"
					},
					{
						"astId": 51,
						"contract": "contracts/Voting.sol:Voting",
						"label": "numPosts",
						"offset": 0,
						"slot": "3",
						"type": "t_uint256"
					},
					{
						"astId": 56,
						"contract": "contracts/Voting.sol:Voting",
						"label": "candidates",
						"offset": 0,
						"slot": "4",
						"type": "t_mapping(t_uint256,t_struct(Candidate)45_storage)"
					},
					{
						"astId": 61,
						"contract": "contracts/Voting.sol:Voting",
						"label": "voters",
						"offset": 0,
						"slot": "5",
						"type": "t_mapping(t_bytes32,t_struct(Voter)36_storage)"
					},
					{
						"astId": 65,
						"contract": "contracts/Voting.sol:Voting",
						"label": "posts",
						"offset": 0,
						"slot": "6",
						"type": "t_mapping(t_uint256,t_bytes32)"
					}
				],
				"types": {
					"t_address": {
						"encoding": "inplace",
						"label": "address",
						"numberOfBytes": "20"
					},
					"t_bool": {
						"encoding": "inplace",
						"label": "bool",
						"numberOfBytes": "1"
					},
					"t_bytes32": {
						"encoding": "inplace",
						"label": "bytes32",
						"numberOfBytes": "32"
					},
					"t_mapping(t_bytes32,t_struct(Voter)36_storage)": {
						"encoding": "mapping",
						"key": "t_bytes32",
						"label": "mapping(bytes32 => struct Voting.Voter)",
						"numberOfBytes": "32",
						"value": "t_struct(Voter)36_storage"
					},
					"t_mapping(t_uint256,t_bool)": {
						"encoding": "mapping",
						"key": "t_uint256",
						"label": "mapping(uint256 => bool)",
						"numberOfBytes": "32",
						"value": "t_bool"
					},
					"t_mapping(t_uint256,t_bytes32)": {
						"encoding": "mapping",
						"key": "t_uint256",
						"label": "mapping(uint256 => bytes32)",
						"numberOfBytes": "32",
						"value": "t_bytes32"
					},
					"t_mapping(t_uint256,t_struct(Candidate)45_storage)": {
						"encoding": "mapping",
						"key": "t_uint256",
						"label": "mapping(uint256 => struct Voting.Candidate)",
						"numberOfBytes": "32",
						"value": "t_struct(Candidate)45_storage"
					},
					"t_struct(Candidate)45_storage": {
						"encoding": "inplace",
						"label": "struct Voting.Candidate",
						"members": [
							{
								"astId": 38,
								"contract": "contracts/Voting.sol:Voting",
								"label": "name",
								"offset": 0,
								"slot": "0",
								"type": "t_bytes32"
							},
							{
								"astId": 40,
								"contract": "contracts/Voting.sol:Voting",
								"label": "votes",
								"offset": 0,
								"slot": "1",
								"type": "t_uint256"
							},
							{
								"astId": 42,
								"contract": "contracts/Voting.sol:Voting",
								"label": "postID",
								"offset": 0,
								"slot": "2",
								"type": "t_uint256"
							},
							{
								"astId": 44,
								"contract": "contracts/Voting.sol:Voting",
								"label": "doesExist",
								"offset": 0,
								"slot": "3",
								"type": "t_bool"
							}
						],
						"numberOfBytes": "128"
					},
					"t_struct(Voter)36_storage": {
						"encoding": "inplace",
						"label": "struct Voting.Voter",
						"members": [
							{
								"astId": 29,
								"contract": "contracts/Voting.sol:Voting",
								"label": "voterID",
								"offset": 0,
								"slot": "0",
								"type": "t_bytes32"
							},
							{
								"astId": 31,
								"contract": "contracts/Voting.sol:Voting",
								"label": "doesExist",
								"offset": 0,
								"slot": "1",
								"type": "t_bool"
							},
							{
								"astId": 35,
								"contract": "contracts/Voting.sol:Voting",
								"label": "votedPosts",
								"offset": 0,
								"slot": "2",
								"type": "t_mapping(t_uint256,t_bool)"
							}
						],
						"numberOfBytes": "96"
					},
					"t_uint256": {
						"encoding": "inplace",
						"label": "uint256",
						"numberOfBytes": "32"
					}
				}
			},
			"userdoc": {
				"kind": "user",
				"methods": {},
				"version": 1
			}
		}
	}
}