{
	"data": {
		"bytecode": {
			"linkReferences": {},
			"object": "608060405234801561001057600080fd5b50336000806101000a81548173ffffffffffffffffffffffffffffffffffffffff021916908373ffffffffffffffffffffffffffffffffffffffff160217905550610c99806100606000396000f3fe608060405234801561001057600080fd5b50600436106100b45760003560e01c80639ef1204c116100715780639ef1204c146101a4578063b6a90065146101c0578063c697daee146101dc578063e02adad2146101fa578063e8685ba114610216578063f5749a8f14610234576100b4565b80632ce35e11146100b957806335b8e820146100e957806340731c241461011d57806365fc783c1461014e5780637d75a4381461016c57806388827c1614610188575b600080fd5b6100d360048036038101906100ce91906108d8565b610250565b6040516100e091906109ec565b60405180910390f35b61010360048036038101906100fe91906108d8565b610270565b604051610114959493929190610a30565b60405180910390f35b610137600480360381019061013291906108d8565b6102fb565b604051610145929190610a07565b60405180910390f35b61015661031c565b60405161016391906109ec565b60405180910390f35b610186600480360381019061018191906108d8565b610326565b005b6101a2600480360381019061019d919061082b565b6103b0565b005b6101be60048036038101906101b99190610898565b61043f565b005b6101da60048036038101906101d591906108d8565b61062c565b005b6101e46106b6565b6040516101f191906109ec565b60405180910390f35b610214600480360381019061020f9190610858565b6106c0565b005b61021e610719565b60405161022b91906109ec565b60405180910390f35b61024e60048036038101906102499190610898565b610723565b005b600060046000838152602001908152602001600020600101549050919050565b60008060008060008560046000888152602001908152602001600020600001546004600089815260200190815260200160002060010154600460008a81526020019081526020016000206002015460066000600460008d8152602001908152602001600020600201548152602001908152602001600020549450945094509450945091939590929450565b60008082600660008581526020019081526020016000205491509150915091565b6000600254905090565b60008054906101000a900473ffffffffffffffffffffffffffffffffffffffff1673ffffffffffffffffffffffffffffffffffffffff163373ffffffffffffffffffffffffffffffffffffffff161461037e57600080fd5b60016004600083815260200190815260200160002060030160006101000a81548160ff02191690831515021790555050565b60008054906101000a900473ffffffffffffffffffffffffffffffffffffffff1673ffffffffffffffffffffffffffffffffffffffff163373ffffffffffffffffffffffffffffffffffffffff161461040857600080fd5b60006003600081548092919061041d90610ab4565b9190505590508160066000838152602001908152602001600020819055505050565b600115156004600083815260200190815260200160002060030160009054906101000a900460ff16151514156105f257600015156005600084815260200190815260200160002060010160009054906101000a900460ff16151514156104ab576104aa8260016106c0565b5b6005600083815260200190815260200160002060020160006004600084815260200190815260200160002060020154815260200190815260200160002060009054906101000a900460ff1615610535577fba6ae3dbd1f39a6286aa8cb6d47d3e2e1aa302819730506f57e9aeb76ad03997604051610528906109ac565b60405180910390a16105ed565b60016005600084815260200190815260200160002060020160006004600085815260200190815260200160002060020154815260200190815260200160002060006101000a81548160ff0219169083151502179055506004600082815260200190815260200160002060010160008154809291906105b290610ab4565b91905055507fba6ae3dbd1f39a6286aa8cb6d47d3e2e1aa302819730506f57e9aeb76ad039976040516105e4906109cc565b60405180910390a15b610628565b7fba6ae3dbd1f39a6286aa8cb6d47d3e2e1aa302819730506f57e9aeb76ad0399760405161061f9061098c565b60405180910390a15b5050565b60008054906101000a900473ffffffffffffffffffffffffffffffffffffffff1673ffffffffffffffffffffffffffffffffffffffff163373ffffffffffffffffffffffffffffffffffffffff161461068457600080fd5b60006004600083815260200190815260200160002060030160006101000a81548160ff02191690831515021790555050565b6000600354905090565b6000600560008481526020019081526020016000209050828160000181905550818160010160006101000a81548160ff0219169083151502179055506002600081548092919061070f90610ab4565b9190505550505050565b6000600154905090565b60008054906101000a900473ffffffffffffffffffffffffffffffffffffffff1673ffffffffffffffffffffffffffffffffffffffff163373ffffffffffffffffffffffffffffffffffffffff161461077b57600080fd5b60006001600081548092919061079090610ab4565b91905055905060006004600083815260200190815260200160002090508381600001819055506000816001018190555082816002018190555060018160030160006101000a81548160ff02191690831515021790555050505050565b6000813590506107fb81610c1e565b92915050565b60008135905061081081610c35565b92915050565b60008135905061082581610c4c565b92915050565b60006020828403121561084157610840610b2c565b5b600061084f84828501610801565b91505092915050565b6000806040838503121561086f5761086e610b2c565b5b600061087d85828601610801565b925050602061088e858286016107ec565b9150509250929050565b600080604083850312156108af576108ae610b2c565b5b60006108bd85828601610801565b92505060206108ce85828601610816565b9150509250929050565b6000602082840312156108ee576108ed610b2c565b5b60006108fc84828501610816565b91505092915050565b61090e81610aa0565b82525050565b6000610921603083610a83565b915061092c82610b31565b604082019050919050565b6000610944603283610a83565b915061094f82610b80565b604082019050919050565b6000610967602c83610a83565b915061097282610bcf565b604082019050919050565b61098681610aaa565b82525050565b600060208201905081810360008301526109a581610914565b9050919050565b600060208201905081810360008301526109c581610937565b9050919050565b600060208201905081810360008301526109e58161095a565b9050919050565b6000602082019050610a01600083018461097d565b92915050565b6000604082019050610a1c600083018561097d565b610a296020830184610905565b9392505050565b600060a082019050610a45600083018861097d565b610a526020830187610905565b610a5f604083018661097d565b610a6c606083018561097d565b610a796080830184610905565b9695505050505050565b600082825260208201905092915050565b60008115159050919050565b6000819050919050565b6000819050919050565b6000610abf82610aaa565b91507fffffffffffffffffffffffffffffffffffffffffffffffffffffffffffffffff821415610af257610af1610afd565b5b600182019050919050565b7f4e487b7100000000000000000000000000000000000000000000000000000000600052601160045260246000fd5b600080fd5b7f5468652063616e64696461746520796f752061726520766f74696e6720666f7260008201527f20646f6573206e6f742065786973742e00000000000000000000000000000000602082015250565b7f596f757220766f746520666f72207468697320706f73742068617320616c726560008201527f616479206265656e207265636f726465642e0000000000000000000000000000602082015250565b7f566f746520666f722063757272656e7420706f7374207375636365737366756c60008201527f6c79207265636f726465642e0000000000000000000000000000000000000000602082015250565b610c2781610a94565b8114610c3257600080fd5b50565b610c3e81610aa0565b8114610c4957600080fd5b50565b610c5581610aaa565b8114610c6057600080fd5b5056fea2646970667358221220bfa0a4291078c5e04f39bcd0515ad4bc30164e2803e44c6df9eea2c4c24a054c64736f6c63430008070033",
			"opcodes": "PUSH1 0x80 PUSH1 0x40 MSTORE CALLVALUE DUP1 ISZERO PUSH2 0x10 JUMPI PUSH1 0x0 DUP1 REVERT JUMPDEST POP CALLER PUSH1 0x0 DUP1 PUSH2 0x100 EXP DUP2 SLOAD DUP2 PUSH20 0xFFFFFFFFFFFFFFFFFFFFFFFFFFFFFFFFFFFFFFFF MUL NOT AND SWAP1 DUP4 PUSH20 0xFFFFFFFFFFFFFFFFFFFFFFFFFFFFFFFFFFFFFFFF AND MUL OR SWAP1 SSTORE POP PUSH2 0xC99 DUP1 PUSH2 0x60 PUSH1 0x0 CODECOPY PUSH1 0x0 RETURN INVALID PUSH1 0x80 PUSH1 0x40 MSTORE CALLVALUE DUP1 ISZERO PUSH2 0x10 JUMPI PUSH1 0x0 DUP1 REVERT JUMPDEST POP PUSH1 0x4 CALLDATASIZE LT PUSH2 0xB4 JUMPI PUSH1 0x0 CALLDATALOAD PUSH1 0xE0 SHR DUP1 PUSH4 0x9EF1204C GT PUSH2 0x71 JUMPI DUP1 PUSH4 0x9EF1204C EQ PUSH2 0x1A4 JUMPI DUP1 PUSH4 0xB6A90065 EQ PUSH2 0x1C0 JUMPI DUP1 PUSH4 0xC697DAEE EQ PUSH2 0x1DC JUMPI DUP1 PUSH4 0xE02ADAD2 EQ PUSH2 0x1FA JUMPI DUP1 PUSH4 0xE8685BA1 EQ PUSH2 0x216 JUMPI DUP1 PUSH4 0xF5749A8F EQ PUSH2 0x234 JUMPI PUSH2 0xB4 JUMP JUMPDEST DUP1 PUSH4 0x2CE35E11 EQ PUSH2 0xB9 JUMPI DUP1 PUSH4 0x35B8E820 EQ PUSH2 0xE9 JUMPI DUP1 PUSH4 0x40731C24 EQ PUSH2 0x11D JUMPI DUP1 PUSH4 0x65FC783C EQ PUSH2 0x14E JUMPI DUP1 PUSH4 0x7D75A438 EQ PUSH2 0x16C JUMPI DUP1 PUSH4 0x88827C16 EQ PUSH2 0x188 JUMPI JUMPDEST PUSH1 0x0 DUP1 REVERT JUMPDEST PUSH2 0xD3 PUSH1 0x4 DUP1 CALLDATASIZE SUB DUP2 ADD SWAP1 PUSH2 0xCE SWAP2 SWAP1 PUSH2 0x8D8 JUMP JUMPDEST PUSH2 0x250 JUMP JUMPDEST PUSH1 0x40 MLOAD PUSH2 0xE0 SWAP2 SWAP1 PUSH2 0x9EC JUMP JUMPDEST PUSH1 0x40 MLOAD DUP1 SWAP2 SUB SWAP1 RETURN JUMPDEST PUSH2 0x103 PUSH1 0x4 DUP1 CALLDATASIZE SUB DUP2 ADD SWAP1 PUSH2 0xFE SWAP2 SWAP1 PUSH2 0x8D8 JUMP JUMPDEST PUSH2 0x270 JUMP JUMPDEST PUSH1 0x40 MLOAD PUSH2 0x114 SWAP6 SWAP5 SWAP4 SWAP3 SWAP2 SWAP1 PUSH2 0xA30 JUMP JUMPDEST PUSH1 0x40 MLOAD DUP1 SWAP2 SUB SWAP1 RETURN JUMPDEST PUSH2 0x137 PUSH1 0x4 DUP1 CALLDATASIZE SUB DUP2 ADD SWAP1 PUSH2 0x132 SWAP2 SWAP1 PUSH2 0x8D8 JUMP JUMPDEST PUSH2 0x2FB JUMP JUMPDEST PUSH1 0x40 MLOAD PUSH2 0x145 SWAP3 SWAP2 SWAP1 PUSH2 0xA07 JUMP JUMPDEST PUSH1 0x40 MLOAD DUP1 SWAP2 SUB SWAP1 RETURN JUMPDEST PUSH2 0x156 PUSH2 0x31C JUMP JUMPDEST PUSH1 0x40 MLOAD PUSH2 0x163 SWAP2 SWAP1 PUSH2 0x9EC JUMP JUMPDEST PUSH1 0x40 MLOAD DUP1 SWAP2 SUB SWAP1 RETURN JUMPDEST PUSH2 0x186 PUSH1 0x4 DUP1 CALLDATASIZE SUB DUP2 ADD SWAP1 PUSH2 0x181 SWAP2 SWAP1 PUSH2 0x8D8 JUMP JUMPDEST PUSH2 0x326 JUMP JUMPDEST STOP JUMPDEST PUSH2 0x1A2 PUSH1 0x4 DUP1 CALLDATASIZE SUB DUP2 ADD SWAP1 PUSH2 0x19D SWAP2 SWAP1 PUSH2 0x82B JUMP JUMPDEST PUSH2 0x3B0 JUMP JUMPDEST STOP JUMPDEST PUSH2 0x1BE PUSH1 0x4 DUP1 CALLDATASIZE SUB DUP2 ADD SWAP1 PUSH2 0x1B9 SWAP2 SWAP1 PUSH2 0x898 JUMP JUMPDEST PUSH2 0x43F JUMP JUMPDEST STOP JUMPDEST PUSH2 0x1DA PUSH1 0x4 DUP1 CALLDATASIZE SUB DUP2 ADD SWAP1 PUSH2 0x1D5 SWAP2 SWAP1 PUSH2 0x8D8 JUMP JUMPDEST PUSH2 0x62C JUMP JUMPDEST STOP JUMPDEST PUSH2 0x1E4 PUSH2 0x6B6 JUMP JUMPDEST PUSH1 0x40 MLOAD PUSH2 0x1F1 SWAP2 SWAP1 PUSH2 0x9EC JUMP JUMPDEST PUSH1 0x40 MLOAD DUP1 SWAP2 SUB SWAP1 RETURN JUMPDEST PUSH2 0x214 PUSH1 0x4 DUP1 CALLDATASIZE SUB DUP2 ADD SWAP1 PUSH2 0x20F SWAP2 SWAP1 PUSH2 0x858 JUMP JUMPDEST PUSH2 0x6C0 JUMP JUMPDEST STOP JUMPDEST PUSH2 0x21E PUSH2 0x719 JUMP JUMPDEST PUSH1 0x40 MLOAD PUSH2 0x22B SWAP2 SWAP1 PUSH2 0x9EC JUMP JUMPDEST PUSH1 0x40 MLOAD DUP1 SWAP2 SUB SWAP1 RETURN JUMPDEST PUSH2 0x24E PUSH1 0x4 DUP1 CALLDATASIZE SUB DUP2 ADD SWAP1 PUSH2 0x249 SWAP2 SWAP1 PUSH2 0x898 JUMP JUMPDEST PUSH2 0x723 JUMP JUMPDEST STOP JUMPDEST PUSH1 0x0 PUSH1 0x4 PUSH1 0x0 DUP4 DUP2 MSTORE PUSH1 0x20 ADD SWAP1 DUP2 MSTORE PUSH1 0x20 ADD PUSH1 0x0 KECCAK256 PUSH1 0x1 ADD SLOAD SWAP1 POP SWAP2 SWAP1 POP JUMP JUMPDEST PUSH1 0x0 DUP1 PUSH1 0x0 DUP1 PUSH1 0x0 DUP6 PUSH1 0x4 PUSH1 0x0 DUP9 DUP2 MSTORE PUSH1 0x20 ADD SWAP1 DUP2 MSTORE PUSH1 0x20 ADD PUSH1 0x0 KECCAK256 PUSH1 0x0 ADD SLOAD PUSH1 0x4 PUSH1 0x0 DUP10 DUP2 MSTORE PUSH1 0x20 ADD SWAP1 DUP2 MSTORE PUSH1 0x20 ADD PUSH1 0x0 KECCAK256 PUSH1 0x1 ADD SLOAD PUSH1 0x4 PUSH1 0x0 DUP11 DUP2 MSTORE PUSH1 0x20 ADD SWAP1 DUP2 MSTORE PUSH1 0x20 ADD PUSH1 0x0 KECCAK256 PUSH1 0x2 ADD SLOAD PUSH1 0x6 PUSH1 0x0 PUSH1 0x4 PUSH1 0x0 DUP14 DUP2 MSTORE PUSH1 0x20 ADD SWAP1 DUP2 MSTORE PUSH1 0x20 ADD PUSH1 0x0 KECCAK256 PUSH1 0x2 ADD SLOAD DUP2 MSTORE PUSH1 0x20 ADD SWAP1 DUP2 MSTORE PUSH1 0x20 ADD PUSH1 0x0 KECCAK256 SLOAD SWAP5 POP SWAP5 POP SWAP5 POP SWAP5 POP SWAP5 POP SWAP2 SWAP4 SWAP6 SWAP1 SWAP3 SWAP5 POP JUMP JUMPDEST PUSH1 0x0 DUP1 DUP3 PUSH1 0x6 PUSH1 0x0 DUP6 DUP2 MSTORE PUSH1 0x20 ADD SWAP1 DUP2 MSTORE PUSH1 0x20 ADD PUSH1 0x0 KECCAK256 SLOAD SWAP2 POP SWAP2 POP SWAP2 POP SWAP2 JUMP JUMPDEST PUSH1 0x0 PUSH1 0x2 SLOAD SWAP1 POP SWAP1 JUMP JUMPDEST PUSH1 0x0 DUP1 SLOAD SWAP1 PUSH2 0x100 EXP SWAP1 DIV PUSH20 0xFFFFFFFFFFFFFFFFFFFFFFFFFFFFFFFFFFFFFFFF AND PUSH20 0xFFFFFFFFFFFFFFFFFFFFFFFFFFFFFFFFFFFFFFFF AND CALLER PUSH20 0xFFFFFFFFFFFFFFFFFFFFFFFFFFFFFFFFFFFFFFFF AND EQ PUSH2 0x37E JUMPI PUSH1 0x0 DUP1 REVERT JUMPDEST PUSH1 0x1 PUSH1 0x4 PUSH1 0x0 DUP4 DUP2 MSTORE PUSH1 0x20 ADD SWAP1 DUP2 MSTORE PUSH1 0x20 ADD PUSH1 0x0 KECCAK256 PUSH1 0x3 ADD PUSH1 0x0 PUSH2 0x100 EXP DUP2 SLOAD DUP2 PUSH1 0xFF MUL NOT AND SWAP1 DUP4 ISZERO ISZERO MUL OR SWAP1 SSTORE POP POP JUMP JUMPDEST PUSH1 0x0 DUP1 SLOAD SWAP1 PUSH2 0x100 EXP SWAP1 DIV PUSH20 0xFFFFFFFFFFFFFFFFFFFFFFFFFFFFFFFFFFFFFFFF AND PUSH20 0xFFFFFFFFFFFFFFFFFFFFFFFFFFFFFFFFFFFFFFFF AND CALLER PUSH20 0xFFFFFFFFFFFFFFFFFFFFFFFFFFFFFFFFFFFFFFFF AND EQ PUSH2 0x408 JUMPI PUSH1 0x0 DUP1 REVERT JUMPDEST PUSH1 0x0 PUSH1 0x3 PUSH1 0x0 DUP2 SLOAD DUP1 SWAP3 SWAP2 SWAP1 PUSH2 0x41D SWAP1 PUSH2 0xAB4 JUMP JUMPDEST SWAP2 SWAP1 POP SSTORE SWAP1 POP DUP2 PUSH1 0x6 PUSH1 0x0 DUP4 DUP2 MSTORE PUSH1 0x20 ADD SWAP1 DUP2 MSTORE PUSH1 0x20 ADD PUSH1 0x0 KECCAK256 DUP2 SWAP1 SSTORE POP POP POP JUMP JUMPDEST PUSH1 0x1 ISZERO ISZERO PUSH1 0x4 PUSH1 0x0 DUP4 DUP2 MSTORE PUSH1 0x20 ADD SWAP1 DUP2 MSTORE PUSH1 0x20 ADD PUSH1 0x0 KECCAK256 PUSH1 0x3 ADD PUSH1 0x0 SWAP1 SLOAD SWAP1 PUSH2 0x100 EXP SWAP1 DIV PUSH1 0xFF AND ISZERO ISZERO EQ ISZERO PUSH2 0x5F2 JUMPI PUSH1 0x0 ISZERO ISZERO PUSH1 0x5 PUSH1 0x0 DUP5 DUP2 MSTORE PUSH1 0x20 ADD SWAP1 DUP2 MSTORE PUSH1 0x20 ADD PUSH1 0x0 KECCAK256 PUSH1 0x1 ADD PUSH1 0x0 SWAP1 SLOAD SWAP1 PUSH2 0x100 EXP SWAP1 DIV PUSH1 0xFF AND ISZERO ISZERO EQ ISZERO PUSH2 0x4AB JUMPI PUSH2 0x4AA DUP3 PUSH1 0x1 PUSH2 0x6C0 JUMP JUMPDEST JUMPDEST PUSH1 0x5 PUSH1 0x0 DUP4 DUP2 MSTORE PUSH1 0x20 ADD SWAP1 DUP2 MSTORE PUSH1 0x20 ADD PUSH1 0x0 KECCAK256 PUSH1 0x2 ADD PUSH1 0x0 PUSH1 0x4 PUSH1 0x0 DUP5 DUP2 MSTORE PUSH1 0x20 ADD SWAP1 DUP2 MSTORE PUSH1 0x20 ADD PUSH1 0x0 KECCAK256 PUSH1 0x2 ADD SLOAD DUP2 MSTORE PUSH1 0x20 ADD SWAP1 DUP2 MSTORE PUSH1 0x20 ADD PUSH1 0x0 KECCAK256 PUSH1 0x0 SWAP1 SLOAD SWAP1 PUSH2 0x100 EXP SWAP1 DIV PUSH1 0xFF AND ISZERO PUSH2 0x535 JUMPI PUSH32 0xBA6AE3DBD1F39A6286AA8CB6D47D3E2E1AA302819730506F57E9AEB76AD03997 PUSH1 0x40 MLOAD PUSH2 0x528 SWAP1 PUSH2 0x9AC JUMP JUMPDEST PUSH1 0x40 MLOAD DUP1 SWAP2 SUB SWAP1 LOG1 PUSH2 0x5ED JUMP JUMPDEST PUSH1 0x1 PUSH1 0x5 PUSH1 0x0 DUP5 DUP2 MSTORE PUSH1 0x20 ADD SWAP1 DUP2 MSTORE PUSH1 0x20 ADD PUSH1 0x0 KECCAK256 PUSH1 0x2 ADD PUSH1 0x0 PUSH1 0x4 PUSH1 0x0 DUP6 DUP2 MSTORE PUSH1 0x20 ADD SWAP1 DUP2 MSTORE PUSH1 0x20 ADD PUSH1 0x0 KECCAK256 PUSH1 0x2 ADD SLOAD DUP2 MSTORE PUSH1 0x20 ADD SWAP1 DUP2 MSTORE PUSH1 0x20 ADD PUSH1 0x0 KECCAK256 PUSH1 0x0 PUSH2 0x100 EXP DUP2 SLOAD DUP2 PUSH1 0xFF MUL NOT AND SWAP1 DUP4 ISZERO ISZERO MUL OR SWAP1 SSTORE POP PUSH1 0x4 PUSH1 0x0 DUP3 DUP2 MSTORE PUSH1 0x20 ADD SWAP1 DUP2 MSTORE PUSH1 0x20 ADD PUSH1 0x0 KECCAK256 PUSH1 0x1 ADD PUSH1 0x0 DUP2 SLOAD DUP1 SWAP3 SWAP2 SWAP1 PUSH2 0x5B2 SWAP1 PUSH2 0xAB4 JUMP JUMPDEST SWAP2 SWAP1 POP SSTORE POP PUSH32 0xBA6AE3DBD1F39A6286AA8CB6D47D3E2E1AA302819730506F57E9AEB76AD03997 PUSH1 0x40 MLOAD PUSH2 0x5E4 SWAP1 PUSH2 0x9CC JUMP JUMPDEST PUSH1 0x40 MLOAD DUP1 SWAP2 SUB SWAP1 LOG1 JUMPDEST PUSH2 0x628 JUMP JUMPDEST PUSH32 0xBA6AE3DBD1F39A6286AA8CB6D47D3E2E1AA302819730506F57E9AEB76AD03997 PUSH1 0x40 MLOAD PUSH2 0x61F SWAP1 PUSH2 0x98C JUMP JUMPDEST PUSH1 0x40 MLOAD DUP1 SWAP2 SUB SWAP1 LOG1 JUMPDEST POP POP JUMP JUMPDEST PUSH1 0x0 DUP1 SLOAD SWAP1 PUSH2 0x100 EXP SWAP1 DIV PUSH20 0xFFFFFFFFFFFFFFFFFFFFFFFFFFFFFFFFFFFFFFFF AND PUSH20 0xFFFFFFFFFFFFFFFFFFFFFFFFFFFFFFFFFFFFFFFF AND CALLER PUSH20 0xFFFFFFFFFFFFFFFFFFFFFFFFFFFFFFFFFFFFFFFF AND EQ PUSH2 0x684 JUMPI PUSH1 0x0 DUP1 REVERT JUMPDEST PUSH1 0x0 PUSH1 0x4 PUSH1 0x0 DUP4 DUP2 MSTORE PUSH1 0x20 ADD SWAP1 DUP2 MSTORE PUSH1 0x20 ADD PUSH1 0x0 KECCAK256 PUSH1 0x3 ADD PUSH1 0x0 PUSH2 0x100 EXP DUP2 SLOAD DUP2 PUSH1 0xFF MUL NOT AND SWAP1 DUP4 ISZERO ISZERO MUL OR SWAP1 SSTORE POP POP JUMP JUMPDEST PUSH1 0x0 PUSH1 0x3 SLOAD SWAP1 POP SWAP1 JUMP JUMPDEST PUSH1 0x0 PUSH1 0x5 PUSH1 0x0 DUP5 DUP2 MSTORE PUSH1 0x20 ADD SWAP1 DUP2 MSTORE PUSH1 0x20 ADD PUSH1 0x0 KECCAK256 SWAP1 POP DUP3 DUP2 PUSH1 0x0 ADD DUP2 SWAP1 SSTORE POP DUP2 DUP2 PUSH1 0x1 ADD PUSH1 0x0 PUSH2 0x100 EXP DUP2 SLOAD DUP2 PUSH1 0xFF MUL NOT AND SWAP1 DUP4 ISZERO ISZERO MUL OR SWAP1 SSTORE POP PUSH1 0x2 PUSH1 0x0 DUP2 SLOAD DUP1 SWAP3 SWAP2 SWAP1 PUSH2 0x70F SWAP1 PUSH2 0xAB4 JUMP JUMPDEST SWAP2 SWAP1 POP SSTORE POP POP POP POP JUMP JUMPDEST PUSH1 0x0 PUSH1 0x1 SLOAD SWAP1 POP SWAP1 JUMP JUMPDEST PUSH1 0x0 DUP1 SLOAD SWAP1 PUSH2 0x100 EXP SWAP1 DIV PUSH20 0xFFFFFFFFFFFFFFFFFFFFFFFFFFFFFFFFFFFFFFFF AND PUSH20 0xFFFFFFFFFFFFFFFFFFFFFFFFFFFFFFFFFFFFFFFF AND CALLER PUSH20 0xFFFFFFFFFFFFFFFFFFFFFFFFFFFFFFFFFFFFFFFF AND EQ PUSH2 0x77B JUMPI PUSH1 0x0 DUP1 REVERT JUMPDEST PUSH1 0x0 PUSH1 0x1 PUSH1 0x0 DUP2 SLOAD DUP1 SWAP3 SWAP2 SWAP1 PUSH2 0x790 SWAP1 PUSH2 0xAB4 JUMP JUMPDEST SWAP2 SWAP1 POP SSTORE SWAP1 POP PUSH1 0x0 PUSH1 0x4 PUSH1 0x0 DUP4 DUP2 MSTORE PUSH1 0x20 ADD SWAP1 DUP2 MSTORE PUSH1 0x20 ADD PUSH1 0x0 KECCAK256 SWAP1 POP DUP4 DUP2 PUSH1 0x0 ADD DUP2 SWAP1 SSTORE POP PUSH1 0x0 DUP2 PUSH1 0x1 ADD DUP2 SWAP1 SSTORE POP DUP3 DUP2 PUSH1 0x2 ADD DUP2 SWAP1 SSTORE POP PUSH1 0x1 DUP2 PUSH1 0x3 ADD PUSH1 0x0 PUSH2 0x100 EXP DUP2 SLOAD DUP2 PUSH1 0xFF MUL NOT AND SWAP1 DUP4 ISZERO ISZERO MUL OR SWAP1 SSTORE POP POP POP POP POP JUMP JUMPDEST PUSH1 0x0 DUP2 CALLDATALOAD SWAP1 POP PUSH2 0x7FB DUP2 PUSH2 0xC1E JUMP JUMPDEST SWAP3 SWAP2 POP POP JUMP JUMPDEST PUSH1 0x0 DUP2 CALLDATALOAD SWAP1 POP PUSH2 0x810 DUP2 PUSH2 0xC35 JUMP JUMPDEST SWAP3 SWAP2 POP POP JUMP JUMPDEST PUSH1 0x0 DUP2 CALLDATALOAD SWAP1 POP PUSH2 0x825 DUP2 PUSH2 0xC4C JUMP JUMPDEST SWAP3 SWAP2 POP POP JUMP JUMPDEST PUSH1 0x0 PUSH1 0x20 DUP3 DUP5 SUB SLT ISZERO PUSH2 0x841 JUMPI PUSH2 0x840 PUSH2 0xB2C JUMP JUMPDEST JUMPDEST PUSH1 0x0 PUSH2 0x84F DUP5 DUP3 DUP6 ADD PUSH2 0x801 JUMP JUMPDEST SWAP2 POP POP SWAP3 SWAP2 POP POP JUMP JUMPDEST PUSH1 0x0 DUP1 PUSH1 0x40 DUP4 DUP6 SUB SLT ISZERO PUSH2 0x86F JUMPI PUSH2 0x86E PUSH2 0xB2C JUMP JUMPDEST JUMPDEST PUSH1 0x0 PUSH2 0x87D DUP6 DUP3 DUP7 ADD PUSH2 0x801 JUMP JUMPDEST SWAP3 POP POP PUSH1 0x20 PUSH2 0x88E DUP6 DUP3 DUP7 ADD PUSH2 0x7EC JUMP JUMPDEST SWAP2 POP POP SWAP3 POP SWAP3 SWAP1 POP JUMP JUMPDEST PUSH1 0x0 DUP1 PUSH1 0x40 DUP4 DUP6 SUB SLT ISZERO PUSH2 0x8AF JUMPI PUSH2 0x8AE PUSH2 0xB2C JUMP JUMPDEST JUMPDEST PUSH1 0x0 PUSH2 0x8BD DUP6 DUP3 DUP7 ADD PUSH2 0x801 JUMP JUMPDEST SWAP3 POP POP PUSH1 0x20 PUSH2 0x8CE DUP6 DUP3 DUP7 ADD PUSH2 0x816 JUMP JUMPDEST SWAP2 POP POP SWAP3 POP SWAP3 SWAP1 POP JUMP JUMPDEST PUSH1 0x0 PUSH1 0x20 DUP3 DUP5 SUB SLT ISZERO PUSH2 0x8EE JUMPI PUSH2 0x8ED PUSH2 0xB2C JUMP JUMPDEST JUMPDEST PUSH1 0x0 PUSH2 0x8FC DUP5 DUP3 DUP6 ADD PUSH2 0x816 JUMP JUMPDEST SWAP2 POP POP SWAP3 SWAP2 POP POP JUMP JUMPDEST PUSH2 0x90E DUP2 PUSH2 0xAA0 JUMP JUMPDEST DUP3 MSTORE POP POP JUMP JUMPDEST PUSH1 0x0 PUSH2 0x921 PUSH1 0x30 DUP4 PUSH2 0xA83 JUMP JUMPDEST SWAP2 POP PUSH2 0x92C DUP3 PUSH2 0xB31 JUMP JUMPDEST PUSH1 0x40 DUP3 ADD SWAP1 POP SWAP2 SWAP1 POP JUMP JUMPDEST PUSH1 0x0 PUSH2 0x944 PUSH1 0x32 DUP4 PUSH2 0xA83 JUMP JUMPDEST SWAP2 POP PUSH2 0x94F DUP3 PUSH2 0xB80 JUMP JUMPDEST PUSH1 0x40 DUP3 ADD SWAP1 POP SWAP2 SWAP1 POP JUMP JUMPDEST PUSH1 0x0 PUSH2 0x967 PUSH1 0x2C DUP4 PUSH2 0xA83 JUMP JUMPDEST SWAP2 POP PUSH2 0x972 DUP3 PUSH2 0xBCF JUMP JUMPDEST PUSH1 0x40 DUP3 ADD SWAP1 POP SWAP2 SWAP1 POP JUMP JUMPDEST PUSH2 0x986 DUP2 PUSH2 0xAAA JUMP JUMPDEST DUP3 MSTORE POP POP JUMP JUMPDEST PUSH1 0x0 PUSH1 0x20 DUP3 ADD SWAP1 POP DUP2 DUP2 SUB PUSH1 0x0 DUP4 ADD MSTORE PUSH2 0x9A5 DUP2 PUSH2 0x914 JUMP JUMPDEST SWAP1 POP SWAP2 SWAP1 POP JUMP JUMPDEST PUSH1 0x0 PUSH1 0x20 DUP3 ADD SWAP1 POP DUP2 DUP2 SUB PUSH1 0x0 DUP4 ADD MSTORE PUSH2 0x9C5 DUP2 PUSH2 0x937 JUMP JUMPDEST SWAP1 POP SWAP2 SWAP1 POP JUMP JUMPDEST PUSH1 0x0 PUSH1 0x20 DUP3 ADD SWAP1 POP DUP2 DUP2 SUB PUSH1 0x0 DUP4 ADD MSTORE PUSH2 0x9E5 DUP2 PUSH2 0x95A JUMP JUMPDEST SWAP1 POP SWAP2 SWAP1 POP JUMP JUMPDEST PUSH1 0x0 PUSH1 0x20 DUP3 ADD SWAP1 POP PUSH2 0xA01 PUSH1 0x0 DUP4 ADD DUP5 PUSH2 0x97D JUMP JUMPDEST SWAP3 SWAP2 POP POP JUMP JUMPDEST PUSH1 0x0 PUSH1 0x40 DUP3 ADD SWAP1 POP PUSH2 0xA1C PUSH1 0x0 DUP4 ADD DUP6 PUSH2 0x97D JUMP JUMPDEST PUSH2 0xA29 PUSH1 0x20 DUP4 ADD DUP5 PUSH2 0x905 JUMP JUMPDEST SWAP4 SWAP3 POP POP POP JUMP JUMPDEST PUSH1 0x0 PUSH1 0xA0 DUP3 ADD SWAP1 POP PUSH2 0xA45 PUSH1 0x0 DUP4 ADD DUP9 PUSH2 0x97D JUMP JUMPDEST PUSH2 0xA52 PUSH1 0x20 DUP4 ADD DUP8 PUSH2 0x905 JUMP JUMPDEST PUSH2 0xA5F PUSH1 0x40 DUP4 ADD DUP7 PUSH2 0x97D JUMP JUMPDEST PUSH2 0xA6C PUSH1 0x60 DUP4 ADD DUP6 PUSH2 0x97D JUMP JUMPDEST PUSH2 0xA79 PUSH1 0x80 DUP4 ADD DUP5 PUSH2 0x905 JUMP JUMPDEST SWAP7 SWAP6 POP POP POP POP POP POP JUMP JUMPDEST PUSH1 0x0 DUP3 DUP3 MSTORE PUSH1 0x20 DUP3 ADD SWAP1 POP SWAP3 SWAP2 POP POP JUMP JUMPDEST PUSH1 0x0 DUP2 ISZERO ISZERO SWAP1 POP SWAP2 SWAP1 POP JUMP JUMPDEST PUSH1 0x0 DUP2 SWAP1 POP SWAP2 SWAP1 POP JUMP JUMPDEST PUSH1 0x0 DUP2 SWAP1 POP SWAP2 SWAP1 POP JUMP JUMPDEST PUSH1 0x0 PUSH2 0xABF DUP3 PUSH2 0xAAA JUMP JUMPDEST SWAP2 POP PUSH32 0xFFFFFFFFFFFFFFFFFFFFFFFFFFFFFFFFFFFFFFFFFFFFFFFFFFFFFFFFFFFFFFFF DUP3 EQ ISZERO PUSH2 0xAF2 JUMPI PUSH2 0xAF1 PUSH2 0xAFD JUMP JUMPDEST JUMPDEST PUSH1 0x1 DUP3 ADD SWAP1 POP SWAP2 SWAP1 POP JUMP JUMPDEST PUSH32 0x4E487B7100000000000000000000000000000000000000000000000000000000 PUSH1 0x0 MSTORE PUSH1 0x11 PUSH1 0x4 MSTORE PUSH1 0x24 PUSH1 0x0 REVERT JUMPDEST PUSH1 0x0 DUP1 REVERT JUMPDEST PUSH32 0x5468652063616E64696461746520796F752061726520766F74696E6720666F72 PUSH1 0x0 DUP3 ADD MSTORE PUSH32 0x20646F6573206E6F742065786973742E00000000000000000000000000000000 PUSH1 0x20 DUP3 ADD MSTORE POP JUMP JUMPDEST PUSH32 0x596F757220766F746520666F72207468697320706F73742068617320616C7265 PUSH1 0x0 DUP3 ADD MSTORE PUSH32 0x616479206265656E207265636F726465642E0000000000000000000000000000 PUSH1 0x20 DUP3 ADD MSTORE POP JUMP JUMPDEST PUSH32 0x566F746520666F722063757272656E7420706F7374207375636365737366756C PUSH1 0x0 DUP3 ADD MSTORE PUSH32 0x6C79207265636F726465642E0000000000000000000000000000000000000000 PUSH1 0x20 DUP3 ADD MSTORE POP JUMP JUMPDEST PUSH2 0xC27 DUP2 PUSH2 0xA94 JUMP JUMPDEST DUP2 EQ PUSH2 0xC32 JUMPI PUSH1 0x0 DUP1 REVERT JUMPDEST POP JUMP JUMPDEST PUSH2 0xC3E DUP2 PUSH2 0xAA0 JUMP JUMPDEST DUP2 EQ PUSH2 0xC49 JUMPI PUSH1 0x0 DUP1 REVERT JUMPDEST POP JUMP JUMPDEST PUSH2 0xC55 DUP2 PUSH2 0xAAA JUMP JUMPDEST DUP2 EQ PUSH2 0xC60 JUMPI PUSH1 0x0 DUP1 REVERT JUMPDEST POP JUMP INVALID LOG2 PUSH5 0x6970667358 0x22 SLT KECCAK256 0xBF LOG0 LOG4 0x29 LT PUSH25 0xC5E04F39BCD0515AD4BC30164E2803E44C6DF9EEA2C4C24A05 0x4C PUSH5 0x736F6C6343 STOP ADDMOD SMOD STOP CALLER "
		},
		"gasEstimates": {
			"creation": {
				"codeDepositCost": "645000",
				"executionCost": "24942",
				"totalCost": "669942"
			},
			"external": {
				"addPost(bytes32)": "49244",
				"createCandidate(bytes32,uint256)": "infinite",
				"createVoter(bytes32,bool)": "71495",
				"dropCandidate(uint256)": "26946",
				"enableCandidate(uint256)": "27013",
				"getCandidate(uint256)": "infinite",
				"getNumOfCandidates()": "2525",
				"getNumOfPosts()": "2481",
				"getNumOfVoters()": "2504",
				"getPost(uint256)": "infinite",
				"getTotalVotes(uint256)": "infinite",
				"vote(bytes32,uint256)": "infinite"
			}
		},
		"methodIdentifiers": {
			"addPost(bytes32)": "88827c16",
			"createCandidate(bytes32,uint256)": "f5749a8f",
			"createVoter(bytes32,bool)": "e02adad2",
			"dropCandidate(uint256)": "b6a90065",
			"enableCandidate(uint256)": "7d75a438",
			"getCandidate(uint256)": "35b8e820",
			"getNumOfCandidates()": "e8685ba1",
			"getNumOfPosts()": "c697daee",
			"getNumOfVoters()": "65fc783c",
			"getPost(uint256)": "40731c24",
			"getTotalVotes(uint256)": "2ce35e11",
			"vote(bytes32,uint256)": "9ef1204c"
		}
	},
	"abi": [
		{
			"inputs": [],
			"stateMutability": "nonpayable",
			"type": "constructor"
		},
		{
			"anonymous": false,
			"inputs": [
				{
					"indexed": false,
					"internalType": "string",
					"name": "message",
					"type": "string"
				}
			],
			"name": "VoteResult",
			"type": "event"
		},
		{
			"inputs": [
				{
					"internalType": "bytes32",
					"name": "postName",
					"type": "bytes32"
				}
			],
			"name": "addPost",
			"outputs": [],
			"stateMutability": "nonpayable",
			"type": "function"
		},
		{
			"inputs": [
				{
					"internalType": "bytes32",
					"name": "name",
					"type": "bytes32"
				},
				{
					"internalType": "uint256",
					"name": "postID",
					"type": "uint256"
				}
			],
			"name": "createCandidate",
			"outputs": [],
			"stateMutability": "nonpayable",
			"type": "function"
		},
		{
			"inputs": [
				{
					"internalType": "bytes32",
					"name": "voterID",
					"type": "bytes32"
				},
				{
					"internalType": "bool",
					"name": "doesExist",
					"type": "bool"
				}
			],
			"name": "createVoter",
			"outputs": [],
			"stateMutability": "nonpayable",
			"type": "function"
		},
		{
			"inputs": [
				{
					"internalType": "uint256",
					"name": "candidateID",
					"type": "uint256"
				}
			],
			"name": "dropCandidate",
			"outputs": [],
			"stateMutability": "nonpayable",
			"type": "function"
		},
		{
			"inputs": [
				{
					"internalType": "uint256",
					"name": "candidateID",
					"type": "uint256"
				}
			],
			"name": "enableCandidate",
			"outputs": [],
			"stateMutability": "nonpayable",
			"type": "function"
		},
		{
			"inputs": [
				{
					"internalType": "uint256",
					"name": "candidateID",
					"type": "uint256"
				}
			],
			"name": "getCandidate",
			"outputs": [
				{
					"internalType": "uint256",
					"name": "",
					"type": "uint256"
				},
				{
					"internalType": "bytes32",
					"name": "",
					"type": "bytes32"
				},
				{
					"internalType": "uint256",
					"name": "",
					"type": "uint256"
				},
				{
					"internalType": "uint256",
					"name": "",
					"type": "uint256"
				},
				{
					"internalType": "bytes32",
					"name": "",
					"type": "bytes32"
				}
			],
			"stateMutability": "view",
			"type": "function"
		},
		{
			"inputs": [],
			"name": "getNumOfCandidates",
			"outputs": [
				{
					"internalType": "uint256",
					"name": "",
					"type": "uint256"
				}
			],
			"stateMutability": "view",
			"type": "function"
		},
		{
			"inputs": [],
			"name": "getNumOfPosts",
			"outputs": [
				{
					"internalType": "uint256",
					"name": "",
					"type": "uint256"
				}
			],
			"stateMutability": "view",
			"type": "function"
		},
		{
			"inputs": [],
			"name": "getNumOfVoters",
			"outputs": [
				{
					"internalType": "uint256",
					"name": "",
					"type": "uint256"
				}
			],
			"stateMutability": "view",
			"type": "function"
		},
		{
			"inputs": [
				{
					"internalType": "uint256",
					"name": "postID",
					"type": "uint256"
				}
			],
			"name": "getPost",
			"outputs": [
				{
					"internalType": "uint256",
					"name": "",
					"type": "uint256"
				},
				{
					"internalType": "bytes32",
					"name": "",
					"type": "bytes32"
				}
			],
			"stateMutability": "view",
			"type": "function"
		},
		{
			"inputs": [
				{
					"internalType": "uint256",
					"name": "candidateID",
					"type": "uint256"
				}
			],
			"name": "getTotalVotes",
			"outputs": [
				{
					"internalType": "uint256",
					"name": "",
					"type": "uint256"
				}
			],
			"stateMutability": "view",
			"type": "function"
		},
		{
			"inputs": [
				{
					"internalType": "bytes32",
					"name": "voterID",
					"type": "bytes32"
				},
				{
					"internalType": "uint256",
					"name": "candidateID",
					"type": "uint256"
				}
			],
			"name": "vote",
			"outputs": [],
			"stateMutability": "nonpayable",
			"type": "function"
		}
	]
}